:020000040800F2
:1000000000200020D1010008996700089B670008C4
:1000100000000000000000000000000000000000E0
:100020000000000000000000000000009D670008C4
:1000300000000000000000009F670008C95300088E
:10004000BD230008BD23000831640008BD2300085B
:10005000BD230008B9670008B1670008A167000860
:1000600000000000BD230008BD230008BD230008D8
:10007000BD230008BD23000800000000BD230008C8
:1000800000000000BD230008000000000000000088
:10009000C167000800000000BD230008BD23000860
:1000A000BD230008BD230008BD230008BD230008B0
:1000B000BD230008BD230008000000000000000070
:1000C00073B502F02EF93049304B08000B60002464
:1000D00019002F4A13602F4B2F4DE318AB4204D267
:1000E0002E4D2D5904341D60F5E700682C4B9842C5
:1000F00003D112682B4B9A4200D0FEE72A4A2B4BC1
:10010000116019602A492B48814202D2002001C1A6
:10011000F9E71268002A02D11D68002D00D0FEE721
:1001200002F003F901A9684602F0DAF8224A234BEB
:1001300016009B1A9C10AC4204DDAB00F3589847A4
:100140000135F8E71E4A002516001E4B9B1A9C102D
:10015000AC4204DDAB00F35898470135F8E701994C
:10016000009805F069FC184B05001E00174CE41AB6
:10017000A410002C04DD013CA300F3589847F8E7D5
:10018000280002F08CF8C04600000020BABADECA8F
:10019000EC01002000000020F00100200CB100085C
:1001A0007856341232547698F0010020080E002060
:1001B000F00100200C0E0020480200084802000850
:1001C00048020008480200084802000848020008E7
:1001D00010B5FFF775FF00BEFEE704207146084228
:1001E00002D0EFF3098001E0EFF3088071460B4A7B
:1001F000104770B504000D00044802F079F829009A
:10020000200002F097F800BEFEE7C04664AB00088D
:1002100000BEFEE700BEFEE770470000F3010008E5
:100220000CB1000800000020F00100200CB1000813
:100230000000001000000010F00100200C0E002053
:08024000000000100000001096
:10024800FA21084B10B589000400186808F030F846
:1002580000F010FA012000222100404200F0B8F915
:10026800002010BD0C0000204021064A10B513687C
:1002780000200B431360FFF7E3FF06F00FFA00209E
:1002880010BDC04600200240024A136801331360C3
:100298007047C046680B0020014B18687047C0467D
:1002A800680B002013B50190FFF7F6FF0400FFF775
:1002B800F3FF019B001B9842F9D313BD014B18684B
:1002C800000C704700580140024B18680005000DEB
:1002D8007047C046005801400121024A53688B43C9
:1002E80053607047005801400221024A53688B430B
:1002F80053607047005801400421024A53688B43F9
:1003080053607047005801400023F0B585B00400E1
:10031800039301209C4200D135E123681A68002A22
:1003280000DA30E1994E9A4FB34203D0BB4201D074
:1003380005F08AFC2268E368B2420AD1002B0FD18B
:10034800102322699A43131E10D0203B5A1E934152
:100358000CE0904A13420CD08F4A9B18002B08D00F
:1003680005F072FC2368B34203D1E9E70122134088
:100378000FE022691023110099430023602908D057
:1003880050339A4300239A4203D00B00203B5A1E55
:100398009341002B01D005F057FC804B62691A424B
:1003A80001D005F051FC0823A2689A4301D005F05A
:1003B8004BFCE369002B0BD02022190091430A0063
:1003C800113A012A04D9213B012B01D905F03CFC43
:1003D8006368734A134201D005F036FCA31C0193ED
:1003E800DB7FDBB2002B09D10121621CD3776D4A78
:1003F8002000536B0B43536306F070F9236965695A
:1004080022681D430092BA4223D1A168E2680A43D8
:10041800154319004022914303D01022503B9343C7
:1004280017D18021604B4901186A1A6A0A431A6277
:1004380008420ED15D4B5E49186807F039FF5D4BE5
:1004480058430390039B002B03D0039B013B03936A
:10045800F8E7A369002B42D0009AB24207D1012BDA
:1004680001D905F0F1FBA369012B38D134E0FFF77E
:100478002BFF514B984205D0FFF726FF4F4FB8424C
:1004880013D10CE0FFF71AFF80235B019842F3D1E8
:100498000223A2699A431CD005F0D6FB19E0FFF7A6
:1004A8000DFF80235B019842F2D0FFF70DFFB842A1
:1004B80004D1FFF703FF424B9842E9D0A369022B0E
:1004C80001D905F0C1FBA369012B02D0022B03D08F
:1004D80005E080239B0101E080235B011D43226826
:1004E800B24205D13168374B0B401D43356004E0FB
:1004F8001168354B0B401D431560802361685B0014
:10050800994202D133680B4302E0336824490B4017
:100518003360B24202D18022920301E08022D203EA
:10052800E1692A4B880723D0C80602D5986810438A
:1005380001E0986890439860880602D5D86810430F
:1005480001E0D8689043D86020485A618C0702D5EA
:100558004468144301E0446894434460C90702D5E1
:1005680019680A4302E0196891430A001A6002E018
:100578005968914359600020019BDB7F834202D177
:100588000123019AD37705B0F0BDC0461800014099
:100598001C000140FFFCFFFF00FCFFFFFF7FFFFF87
:1005A800FFFEFFFF00100240000001400C00002089
:1005B80080841E00B80B00004704000017040000E8
:1005C80008100000CF6EFFFF8748FFFF00040140BE
:1005D80070B504000D00032901D905F035FBA90108
:1005E800002C14DA0F23E4B22340083B114A9B087D
:1005F80003209B009B18FF220440844010000A40FF
:10060800A040A240DD6985432A43DA6111E0A208CF
:10061800094B03259200D218FF232C40AC401D0043
:10062800C020A5400B40A34080001658AE4333437A
:10063800135070BD00ED00E000E100E010B5041EAD
:1006480001DA05F001FB1F20012320408340014A05
:10065800136010BD00E100E010B5041E01DA05F0DA
:10066800F3FA1F20012320408340014AD36710BDBD
:1006780004E100E0094A431E012093420DD8C0203E
:10068800074A084953600B6A00061B021B0A03430A
:100698000B6200200723906013607047FFFFFF0084
:1006A80010E000E000ED00E010B5084C042808D088
:1006B800002801D005F0C8FA042223689343236078
:1006C80002E023681843206010BDC04610E000E037
:1006D800704710B5FFF7FCFF10BD00001D4B9A696D
:1006E800D20504D508201C494A6902434A619A691F
:1006F800920504D5042018494A6902434A619A6957
:10070800520504D5022014494A6902434A619A698C
:10071800120504D5102010494A6902434A619A69B2
:10072800920404D501200C494A6902434A619A6936
:10073800920304D5202008494A6902434A619A690C
:10074800D20304D5402004494A6902434A61034A56
:100758009A617047002002406C0B0020002F0300B4
:1007680070B50400FFF798FD0500184B9A69D20789
:100778000BD5631CF9D0002C01D1032025E0FFF72D
:100788008BFD401B8442F0D2F7E70222996911429F
:1007980000D09A619B690D4ADB0513D493699B05C8
:1007A80010D493695B050DD493691B050AD493692A
:1007B8009B0407D4802390699B02184002D1936957
:1007C800DB0302D5FFF78AFF012070BD002002403D
:1007D8000120054B5A68024204D00020034ADA601F
:1007E800034ADA607047C04600200240EFCDAB896B
:1007F800050403020121034A002053680B43536098
:100808007047C046002002400A4B10B5C2180A4B78
:1008180004009A4201D905F017FA0848FFF7A0FF2B
:10082800002805D1064B586120600448FFF798FF5F
:1008380010BDC0460000F8F7FF07000050C30000D5
:100848006C0B0020F8B5174D07002B7C0E00140028
:100858000220012B24D001232B74874201D905F0F3
:10086800F3F9114B114AF318934201D905F0ECF949
:100878000F48FFF775FF002810D16861022F01D1DA
:10088800346008E0012F02D1A4B2348003E0002FC5
:1008980001D1E4B234700648FFF762FF00232B74DD
:1008A800F8BDC0466C0B00200000F8F7FF070000F9
:1008B80050C30000F0B54B6885B004000D00032B51
:1008C80010D91A00113A012A0CD9864A86491A40C9
:1008D800521886490A4205D0854A9B180B4201D016
:1008E80005F0B2F9AB68022B01D905F0ADF9A023E8
:1008F800DB059C4205D07F4B9C4202D07E4B9C423C
:1009080007D12B689AB2002A03D07C4A134393423A
:1009180011D07B4B9C4202D12B68042204E0794B16
:100928009C4206D103222B68134202D01343934200
:1009380001D005F089F900272B681A00FA4000D188
:10094800CDE00122BA4002921A40019200D1C4E0DF
:1009580010236A689A431300022A2FD1A022D205D5
:10096800944206D12B69002B19D0023B052B14D8D1
:1009780015E0604A944203D12B69062B0DD80EE08E
:100988005D4A944203D12A699A43130003E05C4B01
:100998009C4202D12B69002B01D005F055F90722A2
:1009A8000F203A4092009040FB089B00E318196A18
:1009B80081432869904002000A431A6210236A683A
:1009C8007E009A431300013B012B16D8EB68032BDA
:1009D80001D905F039F90322B240A3689343EA68C4
:1009E800B2401343A3606368029A93431A006B688A
:1009F800DB06DB0FBB401343636003239C46B34015
:100A0800DB4321686A681940080061461140B1401B
:100A180001432160E1680B40A968B1400B43E360E2
:100A2800D3005AD560460126374938404B6B8000C1
:100A380033434B6302900F20344BB9088900C9181F
:100A48008B680393029B9840039B8343A0200393E6
:100A5800C0050023844210D02648330084420CD0BD
:100A68002548B319844208D025486346844204D0F7
:100A7800274BE318581E8341053302988340039897
:100A880003438B602349019B0E68D84333439C463C
:100A9800D30302D4330003409C4663460B604E6880
:100AA800019B33439C46930302D4330003409C4686
:100AB80063464B608E68019B33439C46D30202D445
:100AC800330003409C4663468B60CE68019B3343EA
:100AD800920201D433000340CB6001372CE705B004
:100AE800F0BDC046FFFFDFFF0000EFEFFFFFFEFF96
:100AF8000000DFEF0004005000080050FFFF000076
:100B0800000C0050001C0050001002400000014082
:100B180000E4FFAF00040140A023F7B5DB050400A3
:100B28000D00984205D0434B984202D0424B984260
:100B380007D1ABB2002B04D0404B1A002A439A428B
:100B480014D03F4B9C4206D104231D420CD02B43AA
:100B5800042B09D10AE03B4B9C4205D103231D42DB
:100B680002D02B43032B01D005F06EF800232A0096
:100B7800DA405ED001229A4094462A40009256D02C
:100B880003205A009040C243216807261140216083
:100B9800D90889006118086A1E4001900F200700D3
:100BA800B600B7403E00019FB74366460F62A16892
:100BB800A0271140A1606168FF05B14303261E40CC
:100BC800B600B0406160E1680A40E26099081E4AD8
:100BD800890089188A68024094460022BC4211D0D4
:100BE800144F0132BC420DD0134F0132BC4209D020
:100BF800134F0132BC4205D0144AA21857427A4119
:100C08000627BA1AB240944511D18A6882438A608D
:100C180000990F4AC943106808401060506808409E
:100C28005060906808409060D0680140D1600133FE
:100C38009DE7F7BD0004005000080050FFFF0000CA
:100C4800000C0050001C00500000014000E4FFAF01
:100C580000040140A02370B5DB0504000D00160058
:100C6800984205D0144B984202D0144B984202D1B6
:100C7800002D13D014E0124B984206D104231942D8
:100C88000CD00B43042B09D10AE00E4B984205D136
:100C98000323194202D00B43032B01D004F0D4FFE5
:100CA800012E02D904F0D0FF01E0002E01D0A56189
:100CB80000E0A56270BDC046000400500008005066
:100CC800000C0050001C0050044B10B55A6910422B
:100CD80002D0586104F0A4FD10BDC04600040140D4
:100CE8001021024A13688B4313607047007000405C
:100CF80070B505000C00012801D904F0A5FF631E9A
:100D0800012B01D904F0A0FF032204210A4B186823
:100D1800904328431860094B1A690A431A61012C49
:100D280001D130BF02E040BF20BF20BF04211A69B3
:100D38008A431A6170BDC0460070004000ED00E0B3
:100D48008021034AC90013680B4313607047C046EB
:100D5800007000408021034A890013680B43136028
:100D68007047C046007000400C211B4A10B55368FC
:100D7800D0681B0408405B0F07F086FA2525252557
:100D8800072525252A2525250C001368DB0621D4EF
:100D9800124820E0D3681248D1689B021B0FC05C40
:100DA8000902D368890F0131DB0307D40A4B1B689A
:100DB800DB0601D50B4B02E0084B00E00A4B584319
:100DC80007F076FA07E0802001330002984002E03D
:100DD800054800E0034810BD001002400024F4005C
:100DE80081AB000800093D0000127A00F0B504004C
:100DF80087B0002801D104F027FF23681F2B01D9F1
:100E080004F022FF2368DB0703D423689B075FD421
:100E1800B1E06368B54E334205D0A022D2029342B6
:100E280001D004F011FF0C23B14DEA681A40082ADA
:100E380008D08021EA68490213400C2B0AD1EB68DC
:100E48000B4207D02B689B03DFD56368002BDCD1EE
:100E5800012050E2802362685B028A4202D12B683B
:100E68000B430DE0A021C9028A420BD180212A68D8
:100E7800C90216402E602A680A432A602A6813436A
:100E88002B600CE029680E402E6029680B40059302
:100E9800059B2968974B0B402B60002A0CD0FFF765
:100EA800FBF906002B689B03AFD4FFF7F5F9801B0D
:100EB8006428F7D903201EE2FFF7EEF906002B6835
:100EC8009B03A2D5FFF7E8F9801B6428F7D9F1E75F
:100ED800E368012B03D9092B01D004F0B5FE23697F
:100EE8001F2B01D904F0B0FE0C23814DEA681A408B
:100EF800042A06D0EA6813400C2B10D1EB68DB03F8
:100F08000DD42B685B0702D5E368012BA0D12269B9
:100F18006B681102784A13400B436B602BE0E3685F
:100F28000921002B18D02A688A4313432B60FFF746
:100F3800B3F906002B686E485B0705D4FFF7ACF9D8
:100F4800801B0228F6D9B5E72269436811026A4A6C
:100F580013400B4343600EE02B688B432B60FFF775
:100F68009BF906002B685B0705D5FFF795F9801BF1
:100F78000228F7D99EE72368DB0600D487E00C2314
:100F88005B4DEA681A4236D12B689B0503D5A369E5
:100F9800002B00D15CE7E369FF2B01D904F054FE74
:100FA800236A564A56491A400B4209D08021090241
:100FB8008A4205D0C0221202934201D004F044FEB6
:100FC8006A68504B1340226A13436B606B68E2698E
:100FD8001B0212061B0A13436B60FFF7C5FEEB6882
:100FE800494A1B061B0FD35CD840484B18600020A9
:100FF800FFF726F94BE0A369012B01D904F024FE81
:10100800A369002B33D080222B68520013432B6036
:10101800FFF742F906002B689B0505D4FFF73CF95A
:10102800801B0228F7D945E7E369FF2B01D904F0B3
:101038000BFE236A314A32491A400B4209D08021FB
:1010480009028A4205D0C0221202934201D004F05C
:10105800FBFD6A682B4B1340226A13436B606B6875
:10106800E2691B0212061B0A13436B600FE02A6831
:10107800274B13402B60FFF70FF906002B689B05E1
:1010880005D5FFF709F9801B0228F7D912E723686D
:101098001B0703D423685B073CD4BDE06369012BBD
:1010A80001D904F0D1FD63690122114D002B0ED046
:1010B8002B6D13432B65FFF7EFF806002B6D9B078D
:1010C800E8D4FFF7E9F8801B0228F7D9F2E62B6D80
:1010D80093432B65FFF7E0F806002B6D9B07D9D5E6
:1010E800FFF7DAF8801B0228F7D9E3E6FFFFFEFFD7
:1010F80000100240FFFFFBFFFFE0FFFFFFDFFFFFE5
:10110800FF9FFFFFFF1FFFFF71AB00080C000020CF
:10111800FFFEFFFFA368794F3B4205D0A022D20013
:10112800934201D004F090FD80220021744D5205B5
:10113800AB6B0191134204D1AB6B1343AB63012337
:101148000193802200216F4E5200336802911342AE
:1011580011D1336813433360FFF79EF80290336868
:10116800DB0506D4FFF798F8029BC01A6428F6D965
:10117800A0E6012302938021A36849008B4202D193
:101188002A6D134321E0002B0AD12B6D3B402B65C0
:101198002A6D5D4B13402B65FFF77EF803902BE01B
:1011A800A022D20093420AD12B6D3B402B658023AD
:1011B8002A6DDB001A432A652B6D0B4305E02B6D66
:1011C8003B402B652A6D504B13402B65FFF764F8A5
:1011D80003902B6D9B0512D4FFF75EF8039BC01A92
:1011E8004A4B9842F5D965E6FFF756F8039BC01AB3
:1011F800464B984200D95DE62B6D9B05F4D4029BC3
:10120800012B02D133681F403760019B012B03D1AA
:10121800AA6B3F4B1340AB63636A022B01D904F0FE
:1012280013FD626A002A01D1002064E00C23344DCA
:10123800E9680B400C2B00D10AE6364E022A4BD146
:10124800354BA26A1A4201D004F0FEFCE26A334B25
:10125800134009D0802149038B4205D080239B038A
:101268009A4201D004F0F0FC8021226B2C4BC90378
:1012780013408B4205D080231B049A4201D004F00E
:10128800E3FC2B681E402E60FFF706F806002B686B
:101298001B499B0105D5FEF7FFFF801B0228F6D9E5
:1012A80008E6226BE06ACB681043A26A10431D4A25
:1012B800134080220343CB600B68520413430B6036
:1012C800FEF7EAFF04002B689B01ADD4FEF7E4FFAC
:1012D800001B0228F7D9EDE52B681E402E60FEF7AB
:1012E800DBFF04002B689B019ED5FEF7D5FF001B92
:1012F8000228F7D9DEE507B0F0BDC046FFFEFFFFC4
:101308000010024000700040FFFBFFFF8813000040
:10131800FFFFFFEFFFFFFFFEFFFFFEFFFFFFF3FFF3
:10132800FFFF7FFFFFFF02FFF7B504000E00002854
:1013380001D104F089FC2368013B0E2B01D904F08C
:1013480083FC012E01D904F07FFC0123714F3A6818
:101358001A40964203D823689B070AD428E03A68C3
:101368009A4332433A603A6813409E42F3D00120D0
:10137800CFE0A36880221900914312D020221900DF
:10138800914390290DD0402219009143A02908D0FB
:10139800102219009143C02903D0F02B01D004F08A
:1013A80053FCF0215C4AD3688B43A1680B43D3609C
:1013B8002368DB0706D401233A6856491A40964247
:1013C8005CD964E06368032B01D904F03DFC524DFD
:1013D80063682A68022B02D192030CD4C7E7002B5A
:1013E80002D1920507D4C2E7032B02D1920102D49D
:1013F800BDE75207BBD50321EA688A431343EB6074
:10140800FEF74AFF63680190022B0DD10C23EA68AE
:101418001340082BCFD0FEF73FFF019BC01A3F4B6C
:101428009842F3D9032074E0032B0CD10C23EA680B
:1014380013400C2BBFD0FEF72FFF019BC01A374B70
:101448009842F3D9EEE7002B12D10C23EA681A422E
:10145800B1D0FEF721FF019BC01A304B9842F4D956
:10146800E0E7FEF719FF019BC01A2C4B9842D9D828
:101478000C23EA681340042BF3D19CE70A689A43CB
:1014880032430A600A6813409E4200D06FE723681F
:10149800214D5B0715D5E368214A13420BD0A021E3
:1014A800204AC9001A408A4205D0C022D20093427D
:1014B80001D004F0C9FBEA681B4B1340E2681343F0
:1014C800EB6023681B0716D52369154A13420BD016
:1014D800A021144AC9001A408A4205D0C022D2006D
:1014E800934201D004F0B0FBEB6821690F4AC900B0
:1014F80013400B43EB60FFF737FCEB680C4A1B0605
:101508001B0FD35CD8400B4B18600020FEF798FEE9
:101518000020FEBD00200240001002408813000099
:10152800FFFBFFFFFFFDFFFFFFF8FFFFFFC7FFFF08
:1015380071AB00080C000020014B18687047C046CA
:101548000C000020F8B503680400BF2B01D904F093
:101558007BFB23689B0664D5C0215B4D63692A68C1
:1015680089035A400A4209D0C0229202134093428A
:1015780004D12B6801209B0300D5A4E08022AB6B2B
:10158800520513438022514EAB6333685200134314
:101598003360FEF781FE07003368DB0506D4FEF7EB
:1015A8007BFEC01B6428F7D903208CE061692A6D93
:1015B800454B4A40C02189020A4232D08027196D22
:1015C8001A6D08003F033A431A651F6D404E414AA1
:1015D80030403A401A6518658B050ED46069C02200
:1015E8000100920211403C4B914213D12A681340EA
:1015F800C0229203024013430EE0FEF74DFE07009F
:101608002B6D9B05EAD4FEF747FE344BC01B98426E
:10161800F6D9C9E72A6813402B602B6D1E40314369
:1016280029652368DB070BD56368032B01D904F010
:101638000BFB0321244AD36C8B4361680B43D364AF
:1016480023689B070BD50C25A368AB4301D004F096
:10165800FBFA1D4AA168D36CAB430B43D3642368E0
:101668005B070BD51E4DE3682B4201D004F0ECFA62
:10167800154BDA6C1540E2681543DD6423681B07D7
:1016880010D52369174A134205D08022920193424C
:1016980001D004F0D9FA0C4A134BD16C0B402169E4
:1016A8000B43D364236800201B060CD50F4DA36998
:1016B8002B4201D004F0C8FA0020034AD36C1D4025
:1016C800A3691D43D564F8BD0010024000700040B6
:1016D800FFFFFCFFFFFFF7FFFFFFCFFF88130000AE
:1016E800FFF3FFFFFFEFFFFFFFCFFFFFFFFFF3FF5A
:1016F800F7B54B1E2D4AFF3B04000F00134201D0E3
:1017080004F0A2FA0223651CEA7F1800012A4CD0D3
:101718000122E618EA77F3772368C9325A62773AE2
:101728005A62AD32974219D19A6820490A409A60A4
:1017380099681F4A0A409A60FEF7AEFD0190236837
:10174800DA6801231A40171E19D1FEF7A5FD019B7F
:10175800C01AFA239B009842F1D920E09968154AEB
:101768000A409A609968144A0A409A60FEF794FD04
:1017780001902368DA6802231A40171E07D0FF2257
:10178800236800205A620123F377E8770DE0FEF71B
:1017980083FD019BC01AFA239B009842E9D9FF22D6
:1017A800032023685A62F077EF77FEBDFFFEFFFF44
:1017B800FFEFFFFFFFFDFFFFFFDFFFFF70470000A8
:1017C800036810B59A680400D2040AD5DB68DB0503
:1017D80007D5FFF7F3FF22680E49D368DBB20B4346
:1017E800D36023689A6892040BD5DB689B0508D5FB
:1017F800200000F093FC22680749D368DBB20B4352
:10180800D3608022054B92025A6101230234E377A8
:1018180010BDC0467FFEFFFF7FFDFFFF00040140B3
:10182800A021026870B5D36804008B43D360FEF72B
:1018380033FD05002368DB689B0608D4FEF72CFD02
:10184800FA23401B9B009842F4D9032000E00020B3
:1018580070BD036870B5DA680400520601D500202F
:1018680011E001225242DA60FEF716FD05002368F6
:10187800DB685B06F3D4FEF70FFDFA23401B9B00E1
:101888009842F4D9032070BD70B504000120002CE3
:101898006FD0384B22689A4201D004F0D5F9402322
:1018A80062689A4301D004F0CFF9A3687F2B01D96D
:1018B80004F0CAF9304BE2689A4201D904F0C4F93D
:1018C8002E4B22691A4201D004F0BEF90223626944
:1018D8009A4301D004F0B8F9294BA2691A4201D001
:1018E80004F0B2F9E369012B01D904F0ADF9A51CA4
:1018F800EB7FDBB2002B04D1621CD377200004F00D
:1019080001FF0223CA22EB77236820005A62773A44
:101918005A62FFF79EFF2368002805D0FF225A620B
:1019280004230120EB7724E09968164A0A409A605C
:101938009A6861680A4321690A43A1690A439A605F
:10194800E268A1681A611A6909040A4380211A61C8
:10195800DA688A43DA60DA6C7D398A43DA64DA6CE9
:10196800E1690A4361690A43DA64FF225A62012382
:10197800EB7770BD00280040FF7F0000FFFF9FFF4E
:10198800FFFFEFFFBFFF8FFF0023092803D90A38A5
:101998000133C0B2F9E71B011843C0B270470A23EC
:1019A80002095A43053318401018C0B270470000A6
:1019B800F7B505000C000092012A01D904F044F99A
:1019C8008022E3689202934204D05E4A134201D017
:1019D80004F03AF923695C4A134201D004F034F95F
:1019E80002236F1CFA7F1E00012A00D1A8E0012201
:1019F800FA77EA18D377019200992A683E3320785B
:101A08009268002930D11A420BD001380B2801D92D
:101A180004F01AF94022E378934307D004F014F94C
:101A280004E06B461B78E3701728F7D863783B2BE4
:101A380001D904F009F9A3783B2B01D904F004F982
:101A48002078FFF7A1FF06006078FFF79DFF009060
:101A5800A078FFF799FFE37836041B041843009B2E
:101A68000643180206432CE013400DD0FFF797FFFA
:101A780001380B2801D904F0E7F84022E3789343B2
:101A880007D004F0E1F804E0E370FFF788FF1728B7
:101A9800F7D86078FFF783FF3B2801D904F0D4F822
:101AA800A078FFF77CFF3B2801D904F0CDF8267811
:101AB800637836041B021E43A078E37806431B04B0
:101AC8001E43CA222B6828005A62773A5A62009647
:101AD800FFF7BFFE2B68061E07D0FF225A620423B9
:101AE800019AD3770023FB7720E01848009A16491B
:101AF80002401A609A680A409A609A68E1680A4344
:101B080021690A4380219A60DA688A43DA609B680F
:101B18009B060DD42800FFF783FE002808D0FF227B
:101B28002B685A620423019AD377FE77012607E0CF
:101B3800FF222B685A620123019AD3770023FB778F
:101B48003000FEBDFFFFFEFFFFFFFBFF7F7F7F0032
:101B5800F8B505000C001700012A01D904F074F843
:101B68002A683F20936A6360136915685B045B0CFD
:101B7800A3600E4B1D407F232E0A2A0C1E401D40D9
:101B88003F3B1040134020706670A570E370002F33
:101B98000AD1FFF704FF20703000FFF700FF6070E4
:101BA8002800FFF7FCFEA0700020F8BD7F7F7F00B3
:101BB800F7B505000C000092012A01D904F044F899
:101BC80002236F1CFA7F1E00012A00D190E0012237
:101BD800FA77EA18D377009B0192002B06D11022DE
:101BE8006378134202D093430A3363702378013B2E
:101BF800062B01D904F028F8009BE078002B23D1AC
:101C0800632801D904F020F86378013B0B2B01D934
:101C180004F01AF8A378013B1E2B01D904F014F83C
:101C2800E078FFF7B1FE06006078FFF7ADFE0090A0
:101C3800A078FFF7A9FE2478009B640304433604C8
:101C480026431C02344320E0FFF7A9FE632801D98C
:101C580003F0FAFF6078FFF7A2FE01380B2801D9DC
:101C680003F0F2FFA078FFF79AFE01381E2801D989
:101C780003F0EAFFE6786378A0781B0236041E4377
:101C88000643237834005B031C43CA222B682800D0
:101C98005A62773A5A62FFF7DCFD2B68061E07D0B6
:101CA800FF225A620423019AD3770023FB7715E0B9
:101CB8008021104804405C60DA688A43DA609B68D7
:101CC8009B060DD42800FFF7ABFD002808D0FF22A3
:101CD8002B685A620423019AD377FE77012607E01E
:101CE800FF222B685A620123019AD3770023FB77DE
:101CF8003000FEBD3FFFFF00F8B505000C001700DF
:101D0800012A01D903F0A0FF2B683F255A680D4B23
:101D18001340180CDE041D401B04F60E5B0FE07028
:101D28006670A5702370002F0AD1FFF738FEE070A7
:101D38003000FFF734FE60702800FFF730FEA07017
:101D48000020F8BD3FFFFF00F7B504000E001500A6
:101D5800012A01D903F078FF736AA04A013BFF3BCF
:101D6800134201D003F070FF9D4B72691A4201D0F3
:101D780003F06AFF9B4BF2691A4201D003F064FF3B
:101D8800994B72689A4201D903F05EFF974BB2698A
:101D980013400DD08022D204934209D0802212052C
:101DA800934205D0C0221205934201D003F04CFFA4
:101DB800631C0093DA7F02231800012A00D10CE18A
:101DC8000122A118CA77E218D37722683E33307807
:101DD800771C9268002D48D11A420BD001380B2885
:101DE80001D903F031FF4022F378934305D003F083
:101DF8002BFF02E0F5701728F9D873783B2B01D92F
:101E080003F022FFB3783B2B01D903F01DFFF369E0
:101E1800002B06D1FB7F013B1E2B06D903F014FFD4
:101E280003E0FB7F013B062BF8D83078FFF7ACFDC9
:101E380005007078FFF7A8FD0190B078FFF7A4FDC2
:101E48000700731CD87FFFF79FFD7369F2692D04A3
:101E58001A43F37800061B0413431F43019B2F43C7
:101E68001B021F433D00054345E013400DD0FFF71B
:101E780096FD01380B2801D903F0E6FE4022F378DD
:101E8800934307D003F0E0FE04E0F370FFF787FD0B
:101E98001728F7D87078FFF782FD3B2801D903F09F
:101EA800D3FEB078FFF77BFD3B2801D903F0CCFEC9
:101EB800F369F87F002B07D1FFF771FD01381E2861
:101EC80007D903F0C1FE04E0FFF769FD01380628D1
:101ED800F7D87369F56932781D43B37812041D4346
:101EE80015437278120215432B00F278FD7F120415
:101EF80013432D061D43B2697368716A1343CA22DE
:101F0800019323685A62773A5A62AD32914224D1DA
:101F18009A6832490A409A60DA683549D2B20A4367
:101F2800DA60FEF7B9F9070001222368DE68164077
:101F380007D1FEF7B1F9FA23C01B9B009842F3D9E9
:101F480023E08021019ADD615A649A6849000A43B6
:101F580080219A609A6849012BE09968254A0A40CD
:101F68009A60DA682449D2B20A43DA60FEF794F933
:101F7800070002222368DE6816400FD1FEF78CF9AD
:101F8800FA23C01B9B009842F3D9FF220320236841
:101F980002345A62009BE077DE771EE08021019AC6
:101FA8001D629A649A6889000A4380219A609A6837
:101FB800890180200A439A60104B80021968014306
:101FC80019609A6802439A60FF22236800205A62C7
:101FD80001230234E377009BD877FEBDFFFEFFFFA5
:101FE8007F7F7F7FFFFFFFBFFF7F0000FFFFFFFCBA
:101FF8007FFEFFFFFFFDFFFF7FFDFFFF00040140A5
:10200800F7B506000C0015000193012B01D903F068
:102018001BFE8023671C5B009D4205D0DB189D4298
:1020280007D003F011FE04E032686562D369526C90
:1020380005E0802332689B006362136A926C180C77
:10204800C0B23F2105000D4025707F255204520C77
:102058001E0A62601A0E2E4011401D408022A57093
:102068004025D2051A4028406670E070F977E26191
:102078000B4A13406361019B002B0FD12078FFF7B7
:102088008EFC20706078FFF78AFC6070A078FFF7FC
:1020980086FCA070F87FFFF782FCF8770020FEBD71
:1020A800808080800223F7B5451CEA7F0400180071
:1020B800012A2ED00122E618EA77F3772368C9327D
:1020C8005A62773A5A629968124A0A409A6099683D
:1020D800114A0A409A60FEF7DFF80190042223684B
:1020E800D96811400F1E0ED1FEF7D6F8019BC01A11
:1020F800FA239B009842F1D9FF22032023685A62F1
:10210800F077EF7705E0FB325A6200200123F3777E
:10211800E877FEBDFFFBFFFFFFBFFFFF7047000032
:1021280070B504000120002C00D18EE02368474AD6
:10213800934204D0464A934201D003F085FD636878
:10214800002B05D082225200934201D003F07CFD7F
:10215800A368404A134205D080221202934201D05C
:1021680003F072FD3C4EE368334201D003F06CFD8E
:10217800022322699A4301D003F066FD6369012BAB
:1021880001D903F061FDA369344A134205D08022C6
:10219800D202934201D003F057FD1823E2699A4313
:1021A80003D0202A01D003F04FFD8023226A9A43EE
:1021B80001D003F049FD1023626A9A4301D003F06D
:1021C80043FD274BA26A1A4201D003F03DFDE36AA2
:1021D800244A013B934201D903F036FD25005135CD
:1021E8002B78DBB2002B05D122005032137020006F
:1021F80004F098FA022340212B702368A0691A681A
:102208008A431A60A16862680A43E1680A4321693F
:102218000A4361690A43E1690A43216A0A43A16AD8
:102228000A438021890001400A431A600422000CF5
:102238001040626A1043E26A58601A61DA69002045
:102248001640DE61012360652B7070BD00300140CF
:1022580000380040FFFBFFFFFFF7FFFFFFFDFFFF18
:10226800FFDFFFFFFEFF000070B504000120002C17
:1022780010D0250002234021226851352B701368A5
:1022880020008B43136004F06DFA00205034606026
:102298002870207070BDFEE70C4A10B51168030065
:1022A800002901D10A4911600321106803338B43C7
:1022B8000849C3188B4206D907F0B8FF0C230360FE
:1022C8000120404200E0136010BDC046F401002028
:1022D8000C0E0020001C002001230360014B0B6042
:1022E8007047C046040000200FB413B5084C04AB77
:1022F80004CB80212000019307F0DAFF002803DDDA
:102308000100200000F006F816BC08BC04B018470D
:10231800F901002001204042704710B500F04CF848
:1023280010BD10B500F076F810BD000070B50400BF
:102338000D001548FFF7D8FF21681448FFF7D4FFB0
:1023480061681348FFF7D0FFA1681248FFF7CCFF78
:10235800E1681148FFF7C8FF21691048FFF7C4FF7B
:1023680061690F48FFF7C0FFA1690E48FFF7BCFF7E
:10237800E1690D48FFF7B8FF0C48FFF7B5FF2900E2
:102388000B48FFF7B1FF70BDD2AA0008E0AA000809
:10239800EDAA0008FAAA000807AB000814AB000869
:1023A80021AB00082EAB00083BAB000848AB000887
:1023B8004EAB0008FEE700008021104B49001A6868
:1023C8000A431A60D9680E4A0A40DA6019680D4A49
:1023D8000A4001211A609A688A439A6019680A4A71
:1023E8000A401A60D968094A0A40DA6000221A616C
:1023F8008022074B12059A607047C04600100240C1
:102408000C40FF88F6FFF6FEFFFFFBFFFFFF02FF11
:1024180000ED00E00C2370B51B4C1C4DE068184023
:1024280005F032FF1F1F1F1F071F1F1F091F1F1F38
:102438000B00174B1DE0174B1BE0E368164AE168D9
:102448009B021B0FD05C0902E368890F0131DB0393
:1024580001D40F4B00E00F4B584305F029FF2860CB
:1024680008E08022636812021B045B0F01339A4064
:1024780013002B60E368094A1B061B0FD35C2A680C
:10248800DA402A6070BDC046001002400C000020EF
:102498000024F40000127A0081AB000871AB000838
:1024A80070B502244378184930250B70174B1A78F9
:1024B80022431A700322447C224014011A78AA434A
:1024C80022431A7001228478283D2240D4001A78C9
:1024D800AA4322431A70427B1C00002A03D004221C
:1024E8001B7813432370C3780B7183688B60037B5D
:1024F8000B73C389CB81037C20000B74044B1B68CE
:1025080098470023237070BD8C020020AC02002085
:10251800A402002010B5044B044C1B680449200099
:1025280098470023237010BDA4020020AC020020AD
:102538008C02002010B5012442780A4B0A491A700F
:102548000A7822430A708278DA7042799A7002799E
:102558005A70064B1A7806231A4201D1FFF7DAFFA0
:1025680010BDC0468C020020AC020020880B002061
:10257800427810B5104B002A15D1017800290CD0EB
:10258800012910D10D4C22780A4342210A432270B6
:10259800027A1A75427A5A7505E07D220749524235
:1025A8000C7822430A7042781A70054B1B789B07F7
:1025B80001D4FFF7AFFF10BD8C020020AC02002051
:1025C800880B0020094B0A4A10B51A60094A0A49C3
:1025D8005A600A4A9A6002680A60426818004A60AB
:1025E80007490A6001F03AF910BDC0468002002090
:1025F8003D250008A9240008A40200207925000828
:102608007C0200201FB5022201AB187118001A7055
:1026180001F056FA05B000BD1FB500236C460190C5
:10262800684623700291039202F060F801230A2899
:1026380001D8024B1B5C180004B010BD8AAB00081F
:102648001FB501236A466846137002F04FF8431E0F
:10265800984105B000BD0000F0B5050089B00F0035
:102668001600002118220D4805F080FC132301AC48
:102678002000237001F0ACF9002304A803708760E0
:10268800868105712379837302F0D2F801230A2821
:1026980001D8034B1B5C180009B0F0BD8C02002068
:1026A8008AAB0008F0B58BB000900F00160000212F
:1026B80018221048019305F059FC132303AC20009D
:1026C800237001F085F96B461B7806A803716B46E9
:1026D80001251B79057087608681C373237983730D
:1026E80002F0A6F8030028000A2B01D8024AD05CA1
:1026F8000BB0F0BD8C0200208AAB00081FB5072282
:1027080001AB187118001A7001F0DAF905B000BDB4
:10271800F0B591B00E9316AB1B78344D0B93344B38
:1027280006005B5C0F000C936B680D920F93984743
:10273800041E59D1EB6830000F9398472D4B1F7139
:10274800072F20D10C9807F0F7FC00222A4B06F03F
:10275800EFFE05F07FFF0B9B020009930123059311
:1027680004330193254B20000093AB6908940C9324
:1027780007940694049403940294230020490C9E21
:10278800B047200016E00B9B012609930E9B079487
:10279800029308230193AB6906940E93059404945D
:1027A800039400943000089633000C9A0D990E9CFF
:1027B800A0473000134B1B78002B01D0124B00E0D0
:1027C800124BD95D2B6D0D310C93C9B298470B9BF9
:1027D800002B05D16B6B0B930D4B58680B9B02E0DC
:1027E80000206B6B0B93984711B0F0BD04AF000845
:1027F800A0AB0008B002002000408F4085450100D2
:1028080050C30000ED060020A8AB0008B6AB0008D6
:10281800BC0B0020064B1B78002B01D0054B00E0B9
:10282800054B595C0023821891425B41D8B270472E
:10283800ED060020A8AB0008B6AB000830B50123B0
:1028480004000020104DEB5684421BD00F4C8342ED
:1028580002D12360180015E024683F2C12D901200A
:102868005F2C0FD9E4060DD1002B0BDD013BDCB248
:1028780063B2002C06D10B1E04D00721AB8C0B438E
:10288800AB842300137030BDBC0B0020A0050020D2
:1028980010B50024244B254A1C7001231360244AD8
:1028A8001460244A1460244A1470244A1370244A79
:1028B8001370244A1470244A1470244A1380244A3A
:1028C8001470244A1470244A1370244A244B117833
:1028D8001970517859705168596091689960D16838
:1028E800D9601169196151695961517E5976117E12
:1028F8001C3219761C3303CA03C30C2219491A481F
:1029080005F01FFB194B1C70194B1C70194B1C70E0
:10291800194B1B68002B03D000225A629B6AF9E707
:102928001022164B1A7010BD42050020D00000205E
:10293800D0020020A00500201903002091000020EB
:1029480090000020B8050020DC020020AE02002024
:102958001B040020C8060020920000208C0B0020D9
:10296800BC0B0020B00B0020E00B00203E0500202F
:10297800D402002019040020CC060020E002002028
:1029880010B50C4805F046FA0B4B1B78002B07D006
:1029980001220A4B1A700423094A116899431160ED
:1029A800084B1B78022B04D10821074A13780B43E4
:1029B800137010BDF40600203E050020B805002065
:1029C80004030020DC060020880B002013B5134800
:1029D80005F020FA0122124B12481A708318D97F89
:1029E800CB1E934207D9052908D01923062907D0F9
:1029F8000022062304E000220A2301E0002210231B
:102A0800094C49B22478022C01D0002400E00124AA
:102A18000094C069FFF77CFE13BDC0466C0500201A
:102A2800CC020020BC0B0020DC0600200B4B07B5B5
:102A38001B78022B04D00A4BDB6A0193984701E00C
:102A4800FFF7C4FF02230821064A5370064A537051
:102A5800064A13780B43137007BDC046DC060020F6
:102A680004AF000808030020AC050020880B0020F4
:102A78004023114A10B511680B4313600F4B1B78A4
:102A8800002B01D0FFF77CFF0D4B1B78002B05D1E5
:102A98000C4B1B78022B01D1FFF798FF0A230A4A37
:102AA8000A4C117820000B430121137005F0F4F94A
:102AB800200005F035F910BD040300203E05002074
:102AC800CC020020DC060020880B00201C0400201B
:102AD8001FB51A4805F09EF90022194B1A70194BB8
:102AE8001B78022B03D1184B1B6B03939847174A8B
:102AF8005378527E9A1A52B2131C002A00DA002325
:102B080059B2033BDBB2012B06D9052907D00629A8
:102B180008D10122192307E000220A2304E0002239
:102B2800102301E0002206230024094800780094BD
:102B3800084CC0000059FFF7EBFD1FBD58050020E9
:102B4800CC020020DC06002004AF0008BC0B0020EB
:102B5800E00200201000002073B505F0A5F9334C01
:102B680005002378022B04D0314BDB6A0193984788
:102B780001E0FFF72BFF2F4B2F4A1B7813702F4ACA
:102B8800DB00D3185A790C2353432D4AD3185D60C0
:102B98002C4B1D602C4B2D4D1B78002B2DD02C4B16
:102BA8002C4E1968300005F077F9300005F0B8F8B8
:102BB8002378022B08D0284E284B3000196805F0DE
:102BC8006BF9300005F0ACF82378022B02D02B7893
:102BD800002B21D0FA212248890005F0A7F91F4BC4
:102BE800204C1968FA23DB00C9180918200005F0E1
:102BF80053F9200005F094F80EE01B4A53700322A5
:102C08001A4B5A701A4B1A78002A01D101321A70DD
:102C180008211A780A431A702B78002B05D1124A1A
:102C28005370144A13780133137073BDDC06002007
:102C380004AF0008E0020020CD02002010000020B0
:102C480094000020F0060020920000203E0500209D
:102C5800D8060020580500206C050020D802002066
:102C680018FCFFFFF406002008030020AC05002034
:102C7800880B00201903002037B50A4C0A4DA368B9
:102C880028700120019398472B78002B03D0236CE0
:102C98003421019302E01221236C019339209847D3
:102CA80037BDC04604AF0008A40500200F4B07B588
:102CB8001B78022B04D00E4BDB6A0193984701E086
:102CC800FFF784FE0B4B1B78012B0ED10A4B1B78A8
:102CD800002B02D00322094B5A7003220821084B0B
:102CE8005A70084A13780B43137007BDDC0600209E
:102CF80004AF0008CC0200203E0500200803002095
:102D0800AC050020880B00200F4B07B51B78022B61
:102D180004D00E4BDB6A0193984701E0FFF756FE9B
:102D28000B4B1B78012B0ED10A4B1B78002B02D0C2
:102D38000422094B5A7004220821084B5A70084A89
:102D480013780B43137007BDDC06002004AF00089E
:102D5800CC0200203E05002008030020AC0500201E
:102D6800880B002010B5002828D0FDF731FD1C483D
:102D7800FDF74AFD1B48FDF747FD1B48FDF744FDDD
:102D88001A48FDF741FD1A4C154922680220FDF743
:102D980059FD22681349D2430220FDF753FD154C13
:102DA800114922680220FDF74DFD22680F49D243E0
:102DB8000220FDF747FDFDF71DFD10E0084A094B0D
:102DC80011681B68DB43994209D1074B1968074B07
:102DD8001B68DB43994202D11268054B1A6010BD8B
:102DE8000000080804000808080008080C00080883
:102DF800D0000020D0020020F0B58FB0059314ABAE
:102E08001B88089207930023C54DC64A059E0D935B
:102E18002B801370731E9E41079B76421E40C24C46
:102E28000378069123700078400905F037FA080006
:102E38007401530074015000740174016601BB4AA7
:102E4800BB49136900270D3B0B605369B94A0D3B19
:102E580013600123E0182B80B74B0822196805F08E
:102E680079F82888B54B083080B21968082228807C
:102E7800201805F06FF82B8808332B80B04B5B695E
:102E880005939847AF4B82B21A802B88120AE054F8
:102E9800991C01339BB2E254AB4A89B229800DAB2D
:102EA800C9B21268200001F0FBFD2B880D9A591C4D
:102EB800100A89B2E2546054991C89B2100C60540B
:102EC800191D03339BB2120E2980E25424E101221A
:102ED800944B1A709D4B07271B78002B00D11BE1E0
:102EE800069B9B4A18780121F840FFF7A7FC0123AD
:102EF800069A184083011078402201219043184314
:102F0800069B8A4C1870934B61561D78F0B22A00C4
:102F1800FFF780FC0137002800D1FDE0A368844A50
:102F28000D3B1360E368834A0D3B13608A4B1A78A4
:102F3800002A07D000221A70069B20321B78134300
:102F4800069A13706B46854F1B7F774C07933B6837
:102F5800834E1A0A6370A2701A0C1B0E2371069B0B
:102F6800E2701B787F4963713368A3711B0AE371B0
:102F78007D4B1A787D4B581904F0E3FF754A7A4B5C
:102F880010781B780599C018C0B2107009940A9778
:102F98000B96764B764A002925D00799002922D02E
:102FA80008239C460F2829D81378002B26D00F21F8
:102FB800069B1B781A07120F82180A408B4313438B
:102FC800069A1370637100239AB2904206D9674932
:102FD800554A595CD21811720133F5E701000831DE
:102FE800CBB29C460AE008218C46002806D012780D
:102FF800002A03D0002207900892059300235C4A18
:1030080013701A0090421DD9584DA95C052906D0A5
:10301800082914D1534D5C1CE954E3B20FE0514C1C
:10302800571C0232FFB2D2B2E1545E1C991CEF5D0C
:10303800AD5CC9B2F6B20333A755DBB265540132B1
:10304800D2B2DFE7484A1370002B02D00122484B66
:103058001A7000223F4B1A70059B93422DD0079B94
:1030680093422AD020256846634661464019007875
:103078005C1C2D4B089D585469463E48898BE4B228
:10308800364B0290954207D1354A12680192089A48
:1030980000921B68384A05E03148006800920190A8
:1030A8001B68364A059801F081FC6B461E489A8BCE
:1030B8000019304904F045FFA4460027079B184D26
:1030C80063442B8019000DAB02930B9B2A4A1B68A3
:1030D800009701930A9B09981B6801F023FC2A8832
:1030E8000D9B09998B548C18190A61700432190CBC
:1030F8001B0EA170E3702A800EE0059F3B1E0BD0CB
:103108000027BE4208D03200601C1900013604F0C6
:1031180018FF2E8000E0022738000FB0F0BDC0462F
:10312800400500203E050020C9050020BC0B0020FA
:10313800D8060020D8020020E4020020D40600208F
:1031480004AF0008A6050020D00600204205002094
:10315800BD0B00201B040020D4020020A80500207D
:10316800D000002030040020C8060020F002002013
:10317800190400201A030020B9050020DD060020EC
:10318800F0B591B00F91012100220124494E0E9013
:103198007156494B494D5B56494F0A93B256494BB4
:1031A8007C709B560B93484B99705C70DA70EB6897
:1031B8000C9398470123F3560D97444F444E3978A2
:1031C800072B24D12B6D00200C93984705230896D4
:1031D80000260A9804940293079606960596039685
:1031E800019606F0A9FF00223A4B06F0A1F905F076
:1031F80031FAEB6900900A930B9933003000364A94
:103208000A9CA0476B6A39780A93300030E0062B95
:1032180013D12B6D20000C939847082300220293AA
:103228000A9B08960093EB6907920A930692059207
:10323800049403920194230012E02B6D20000C9358
:1032480098470823002202930A9B08960093EB698B
:1032580007920A931300069205920494039201942C
:103268000B9920000A9EB04720006B6A39780A93B0
:103278009847FA21194B144A1860184B184C1B68C8
:10328800890093600D9A2000536004F005FE200029
:1032980004F046FD0D4B13481978084B9B6A0A93B6
:1032A800984701230020104A11680B43136011B09E
:1032B800F0BDC046BC0B0020A0AB000804AF00085E
:1032C800AC050020B0AB0008080300204005002032
:1032D800B80B000000408F40A861000000030020E8
:1032E8001C040020C905002004030020F0B5914B00
:1032F80089B01B780A20FF2B00D119E18E4F002BD3
:1033080000D13B608D4B8E4D1C788E4AE4002B1902
:1033180059790C234B439E5A8B4B01921878002302
:10332800984216D104F0C4FD884A6423904206D915
:10333800874B984201D9874B01E0FA239B00321C46
:103348009E4200D21A1C844B96B21B685A1E9341A7
:10335800DBB2824A11782A1900290AD051790C2245
:103368004A430199013E8A187B4909684E43966091
:1033780005E050790C224243019882189160002B95
:103388000AD00C232C1964795C43019B1C19A16891
:10339800080004F0CBFDA060714B6F4A1B881268CF
:1033A800013B53433A689B183B601022002104A854
:1033B80004F0DCFD002213006A4DA98C0120904026
:1033C80004000C40A04201D10133DBB20132102AC3
:1033D800F4D1002B02D107331943A984624E306817
:1033E80004F066FD544B1C68A04258D3554E002289
:1033F800341D4036019601261A607642574B1B78D9
:10340800002B16D02068676804F052FD874201D867
:10341800002363606768002F0DD0206804F048FD22
:103428003F1AB74207D22068676804F041FD3E1A88
:1034380001E01E006360019B0C34A342DED1AB8C1B
:103448000293414B1B7803930123EB569C460023C0
:1034580019001800DAB20192029A01251A412A428B
:1034680003D10133102BF5D11EE0354ADC00A258F8
:10347800002AF6D0039A002A0CD0314FDA00BA1885
:10348800127915072D176545EBDC52B212119445D8
:103498003BDDE6E707221A412A42E2D0EDE7306831
:1034A80004F006FD261A15E0002908D0013900208D
:1034B80004F03CFD04AB1A5C2C4B1A700CE000289D
:1034C80008D107212A4A274B52785A709A8C0A4306
:1034D8009A846AE7002E09D1244B19491A78D30037
:1034E8005858CB185968FFF74BFE21E01023214AA2
:1034F800214C116820000B433100136004F0CCFC10
:10350800200004F00DFC002012E03C1962790C2424
:1035180062430C4CA2189268002A06D16D462D7998
:103528004A1C04AC6554D1B29BE70130C0B298E79D
:1035380009B0F0BDDC020020C8020020CD02002046
:103548001000002094000020420500207FEE360085
:103558007F3F5C0210270000000300201A040020AF
:10356800AE020020BC0B0020F0060020E002002084
:103578008C0B0020040300204405002030B50D000A
:103588000B4C85B0247803A9E4010C700093130058
:103598002A00FFF731FC002807D1064A064B1268BB
:1035A80058711871DA60FFF7A1FE05B030BDC0464A
:1035B800CE020020D0000020080300201FB50F48CD
:1035C80004F028FC10230E4A116899430D4B116032
:1035D8001B785B070ED50C4B1A78002A0AD10B4BC7
:1035E80002A81B7803A9DB010B700270130000927C
:1035F800FFF702FCFFF77AFE05B000BD4405002086
:1036080004030020880B0020AC050020CE02002017
:10361800F7B5824E300004F0FDFB814C814D2178D6
:103628000B0700D4BEE02B685A0602D5412293430B
:103638002B6005220023114211D07B4A50780228C2
:1036480003D07A484078022809D101232868984392
:103658002860774800785071002010719060754A92
:103668001078009200283BD1002B39D14A0710D599
:103678006E4A117800290CD16F490B705278002AD4
:1036880007D16E4A0130127E0A706D4A1360FFF747
:1036980069FB05222378134222D06849664A087ECE
:1036A8001178884201D9990715D500231370654A06
:1036B800136801331360644B1B78002B06D1604AF2
:1036C8000120136801331360FFF74CFB01232A68BC
:1036D8009A432A6004E0082293432370FFF706FE0A
:1036E80023785A4F9B0721D54F4B1A790193002A0B
:1036F80005D14F4B1A78564B1B789A4216D900239E
:10370800009A3B701370504B1B78002B06D14C4A23
:103718000120136801331360FFF724FB444B019A1F
:103728001B78537101232A689A432A603B78002B3F
:1037380038D0102229680A4034D13A703C48444FA6
:1037480003783F789F4215D9082B13D80133DBB291
:103758000370DB0707D50121384B5956012901DDD4
:1037680001394AB25A700822237893432370FFF72D
:10377800BDFD17E007273148828C3A438284012037
:10378800814329600021009A1170274A53712E4BFA
:1037980011711B788B4205D1294A13681B181360D5
:1037A800FFF7E0FA02222B68134201D093432B6003
:1037B8002B68002B1CD1012523782B4207D0254BE1
:1037C80019481B681B6898472378AB432370042566
:1037D80023782B4207D01F4B14481B689B689847D7
:1037E8002378AB432370082223789343237007E0A0
:1037F800FA213000890004F04FFB300004F090FA01
:10380800022523782B4207D0124B13481B685B68AC
:1038180098472378AB432370F7BDC0461C040020AB
:10382800880B00200403002008030020AC050020BA
:10383800900000203E05002019030020BC0B00204A
:10384800D0000020A005002018030020B8050020A3
:1038580091000020E8020020B0020020F7B5032400
:10386800002870D00368002B6DD04368002B6AD005
:103878008368002B67D000240125344B344A186034
:10388800344BFA261960344BB6001C70334B34495C
:103898001C70344B1C60344B1C80344B1C70344BF4
:1038A8001C60344B1C60344B1D70344B5A60FA2238
:1038B800D200DA60324A9E601A61324A1D705A613B
:1038C8001A005C701D765C761C3281C981C20722A1
:1038D8009A84FEF7DDFF2000FFF744FA2A4F2B49B0
:1038E800380004F015FA3100380004F0D5FA2849F8
:1038F800284804F00DFA2849284804F009FA28490C
:10390800284804F005FA2849284804F001FA28480C
:10391800284B294E0360294B8360294B0361294BAF
:103928004360294BC36033680193984773690193D7
:10393800984704F0F5FA254B28001D70FFF79CF90D
:10394800F36A019398472000FEBDC046E8020020B4
:10395800B80B0000EC020020880B0020DC060020D9
:1039680098AB000804030020DE020020ED060020CA
:10397800F0060020C80200201A0400208C0B00204A
:1039880088130000701700001C0400201936000876
:10399800C535000844050020D92A0008580500202C
:1039A800D52900086C05002089290008F4060020A4
:1039B80084050020612B000804AF0008D5410008E9
:1039C800112D0008352A0008B52C0008A405002090
:1039D80000B503000322002850D00078013A1728C8
:1039E8004CD804F051FC0C0E101416181A1C1E208A
:1039F80022282A2D303336393C3E41434547204A58
:103A080002E0204A00E0204A12781A7135E01F4A85
:103A180031E01F4A2FE01F4A2EE01F4A2CE01F4AC0
:103A2800F2E71F4AF0E71F4A26E01F4A04331C3218
:103A380003CA03C321E01D4A1EE01B4A127EE4E7C5
:103A4800194A526818E0184A926815E0164AD2686E
:103A580012E0154A12690FE0134A52690CE0144A41
:103A680000E0114A5278D0E70F4ACDE7114A02E048
:103A7800114A00E0114A12685A600022100000BD85
:103A8800DC06002042050020CE0200208005002030
:103A9800A8050020B9050020DD060020A4050020A7
:103AA800ED06002010000020BC0B0020E00B0020D9
:103AB8008C0B0020D0000020D0020020CC06002073
:103AC80037B503000320002B00D19FE0504A02388D
:103AD8001268024200D099E01878162800D989E0C7
:103AE80004F0D2FB0C1F2226292D343B3F88424884
:103AF80051595D6165696D72777E850000241D7975
:103B0800444B1D70A54206D0022D75D1424B1C7046
:103B1800FEF75CFF70E0414BDB6A01939847280091
:103B280074E01A793E4B01E01A793E4B1A706CE04A
:103B38005A683D4B01E05A683C4B1A6065E0596889
:103B48000320002962D01022394819E0596803205F
:103B580000295BD01022374812E01879FFF78CF85B
:103B680053E01A79344BE1E7344A04331C3203CB6F
:103B780003C24AE059680320002947D0022230488E
:103B880004F0DFF941E01B7903205A1E0E2A3DD8C4
:103B98002A4A137639E05A68284B5A6035E05A6841
:103BA800264B9A6031E05A68244BDA602DE05A6857
:103BB800224B1A6129E05A68204B5A6125E00420FB
:103BC800185600280AD119E004201856002805D1F3
:103BD80016E01B795BB2DAB2052A14D9032015E086
:103BE8005A68184B01201A60FFF7BCF80DE05A68B4
:103BF800154BA2E7022009E0200007E0134B00E084
:103C08000E4B587002E00D4A137000203EBDC046AE
:103C180004030020DC0600203E05002004AF000855
:103C280042050020CE02002080050020A8050020C3
:103C3800B9050020DD060020ED060020BC0B0020A1
:103C4800E00B0020D0000020D00200208C0B0020C8
:103C5800F0B585B002AD070002916A6003200F2F0E
:103C680068D8354B02381B68034201D09B0661D5E2
:103C78002B7901261A075BB212171B11934201DB3D
:103C8800002A34D00023029C0093022F08D82B4B23
:103C9800FA00D35801261B1B5A1E9341DBB200932E
:103CA800274B20001B6A0193984700283ED0002C20
:103CB8003CD0009B002B39D1224B234AE318934276
:103CC80019D9224B224AE318934216D9214B224A8A
:103CD800E318934213D9214B214AE318934210D990
:103CE800204BE418204B9C4220D804230AE05E1E97
:103CF800B341DEB2C6E7009B04E0012302E00223E1
:103D080000E003230520002E14D10C4A9446614696
:103D1800FA008918624411CD11C153710123BB40C7
:103D2800124A3000918C0B43938403E00620002E46
:103D380000D1023805B0F0BD0403002010000020B7
:103D480004AF0008C02571CCC0C62D00FF5E43CC6F
:103D5800BF270900A0B038CC20A1070040022ECC14
:103D680090D00300606E29CCE0930400BC0B0020C7
:103D78000D4B10B51A6801231A4201D0920610D5CE
:103D8800C21E03230C2A0CD800230849C200535032
:103D98008A1801218140064C13715371A28C8A4301
:103DA800A284180010BDC0460403002010000020A3
:103DB800BC0B0020F0B505000C008BB004920593F5
:103DC800049B9C4200D3F3E1285D631C0238DFB2F8
:103DD800062800D9ECE104F061FA07001300C500D9
:103DE800E10025014601B1010022C74B5A70EA5D86
:103DF8001A72E21C0234E4B2D7B22A5D5A72C9E1DF
:103E08000C22002107A806F020FA0023BF4A9918BF
:103E1800888C07A9585202330C2BF7D10F21EB5D80
:103E280019401B0902936B461B7A8C465BB20393BD
:103E3800B74B1B78002B21D101230399D3568B4212
:103E480003D10023D356634518D0B24AB24910783B
:103E58000F22121AD2B20B78013A93420BDA0320DE
:103E6800AE4AD054981C087000210133DBB2D154FB
:103E78000122AB4B1A700534E7B28BE1E31CDBB2CD
:103E8800EA5CA31CDBB2EB5C12021A43631D043428
:103E9800E4B2DFB22B5D0F2458061C40400F01949A
:103EA800231E01D101330193002802D10623002AE1
:103EB80023D0411E062304291FD907281DD000211D
:103EC800013306280AD1CE003400964EA659002E9A
:103ED8000ED001268E40324392B209E016000E4100
:103EE800F40705D58F4ECC00A659002E00D1062325
:103EF80001311029E5D107A90A80029A002A00D0C9
:103F08004AE16246052A00DD49E1DA43520715D144
:103F180069467E4A097B51706146117007A9088875
:103F280090844888D08488881085C88850850889F6
:103F380090854989D1856946097911767549764808
:103F48000C780F21091BC9B2027801398A4200DBBB
:103F580020E1032471498C54941C0132D2B20470BC
:103F68008B5414E10121EB5D6F4A6B4813700A0012
:103F78009A406E4B02341A80664B02781E780F23E3
:103F88009B1BDBB2E7B2934200D803E153180370DE
:103F98000420624B9854624B1970FBE0EB5D0F27CD
:103FA8005E063B400193A31CDBB2EA5C631DDFB2F3
:103FB800E31C0434DBB2E4B2E95C2B5D09021B04A8
:103FC80019430C00642314435C43594B20001B6ABB
:103FD800760F02939847431E9841019B0630052BA4
:103FE80000DDDFE0052E00DDDFE0072806D16946A9
:103FF800464B09795A1CD177DC615E76454A4649B9
:1040080014780F22121BD2B20B78013A934200DBCC
:10401800C0E00524414AD4549C1C0133DBB20C7027
:10402800D054B4E0434BFF201B68002B03D01B681F
:10403800002B00D09847374A374914780F22121BB3
:10404800D2B20B78023A934200DBA3E00624334A4B
:10405800D4545C1CE4B21055D81C0870694602336D
:10406800DBB2097D92E0E31CDBB2E95C231DDBB225
:10407800EB5C09021B041943A31CDBB2EB5CE85D93
:10408800194364235943A31D0534E4B22A5DDFB202
:1040980007AB1A712022284C266832432260002977
:1040A80008D143B2022B15DDFFF762FE0322002878
:1040B80013D00FE05A680791FFF7CAFD062809D800
:1040C80004F0E2F80A08080804060800022204E0DE
:1040D800012202E0002200E00322202321680E488A
:1040E800994321600B4903780C780F21091BC9B249
:1040F80001398B424EDA07240849CC549C1C013301
:10410800DBB20470CA5442E0AC050020BC0B0020AE
:10411800CE020020C80600201B040020F002002068
:104128001904002010000020DC020020AE0200204C
:1041380004AF0008EC020020040300200F23E85D10
:104148000234E4B2184000D1013005F0F5FF002236
:10415800184B05F0EDF904F07DFA174E2700B06012
:1041680006F02CF80022134B04F092FA04F072FACD
:10417800124BF06018780F2311491B1A0A78DBB22A
:10418800934207D9531C0B7008210E4B99540122F6
:104198000D4B1A703C0013E602229343B1E6042249
:1041A8009343B2E6FD2318401CE7FB23184025E79C
:1041B8000BB0F0BD00408F40BC0B0020C8060020AB
:1041C8001B040020F002002019040020F0B5DF4C89
:1041D80095B0DBB20B93E2816B462C22069100214D
:1041E8009B181B7805902374D94BDA481B781191DA
:1041F8006374D94B01711B78E170A1706171A16082
:1042080021736173A17461612170022B03D0D34BB8
:10421800DB6A07939847D24803F0FCFD059B1B789F
:10422800580901380C93062800D944E104F036F8FF
:1042380007004301AD004301AD0043012E01C94B06
:104248001B78002B00D03AE1C74C069BC74D059858
:10425800591E671C89B201303B002A6800F048FCEF
:1042680030226B469B181B782A682370069B200017
:10427800191F89B211AB00F013FC069BE318DA1E74
:10428800127811029A1E127812040A43191F013B70
:1042980009781B780A431B061343119A934270D17D
:1042A800B34B39001A88B34B00932868B24B00F01F
:1042B80041FC6379E0791A02A379B04D1B041343DA
:1042C8002279691C1343AE4A1360227A637A120278
:1042D80002431B0413431A00A37A1B061343A94A7B
:1042E8001360E27A53065B0F6B760F231A40CA7786
:1042F800227B134000D10123AB60A86805F05EFF64
:104308000022A14B05F014F904F0A4F9A86005F007
:1043180055FF9D4B002204F0BBF904F09BF9069B66
:10432800E860112B23DD5023984E12AF32683B71A1
:10433800303B1343336003230D3405936178A3782E
:1043480009021B04194323787A68194364235943E3
:1043580005983960FFF77CFC059B03340133DBB219
:104368000593082BEAD1326818339A433260002249
:10437800874B5A707B4B01321A70864B5B786B7097
:104388009DE00522824B5A7099E0059B581C59788C
:1043980043781B020B431A0083781B041343C2782B
:1043A80012061A43774B07921B689A4212D07A4B2F
:1043B8001E68002E00D19AE0079B3268934207D10D
:1043C800331D0A9310330D930123776A09930AE08A
:1043D800B66AEEE7714B00261F6800230993654B08
:1043E8000D93654B0A93059B069A5B790893059B89
:1043F8009B18DA1E127811029A1E127812040A43C8
:10440800191F013B09781B780A431B0613430F93B6
:10441800059BDD799B792D021D43ED1BADB22BB2B7
:10442800002B19DBEC190127089B0A9A1807030FC0
:104438000E93069B0598191F11AB89B2029301943C
:10444800079B009700F06EFA0F9911983F4B544A5A
:10445800814200D031E151E080225202BC181C197F
:1044680011AB02930123069900930439079B0A9A1A
:1044780089B20194059800F055FA0F9B119A93425E
:104488003AD10722314B5A705C6132E0364D0599BA
:10449800069A0131280003F054FD032323700023FA
:1044A800069963700139A560217302213D4A13788A
:1044B8000B43137003E001236370FEF7D9FA244B12
:1044C8001B78002B05D1244B1B78022B01D1FEF75A
:1044D8007DFA0821334A344C137820000B430739FE
:1044E800137003F0D9FC200003F01AFCEBE008235A
:1044F8006370FEF7BDFAE6E03C00C2E79542C0D81B
:10450800694624200022091809785A709970089978
:104518009A60C906C90F59710E491A734A7023491E
:104528005C610A6022490A700999012942D1023264
:104538001A70736A9C4204D1002C02D00622034BE5
:10454800BFE000237462099350E0C046B002002027
:10455800CC02002008030020DC06002004AF00087D
:104568006C050020420500203F040020D0060020F2
:10457800A6050020DD060020B9050020BC0B0020A0
:1045880080050020A805002000408F40040300207B
:10459800AC0500208C0B0020CC060020D0020020A7
:1045A800FF3F0000880B00201C040020A00500200D
:1045B800C80600201F210C9D44488D434449A02D66
:1045C80009D11F700B6807709C420BD123005A1E3B
:1045D8009341DBB207E01A700B6802709C4201D16C
:1045E800002CABD100230993394B1C602023089A77
:1045F8001340384A04D001231371374A937406E0F4
:104608001371364B1A78364B1B789A4202D93548C3
:1046180003F000FC0E9A069B0832043B9B1A002B01
:104628003EDD0E9E059B069909369B5C8D1B2A4F25
:10463800043DEDB2FB70002B16D10F27089B3B40C1
:104648001F1E00D03BE7059BA9B298190123264EEF
:1046580000930A9A079B0296019400F013FA0B9BA9
:104668002A003900300021E0089B1B0704D00B9B6F
:1046780008210598FFF79EFB01940124059BA9B228
:104688009819194E079B029600940D9A00F0FAF9B2
:10469800099B002B00D012E7BE603D737C7304E7D2
:1046A800089B1F0704D008210B9B0598FFF782FB86
:1046B800099B002B00D1F8E601E7954200D9E0E616
:1046C80009225A7015E715B0F0BDC046D402002083
:1046D800D002002008030020B00200209000002033
:1046E80091000020F40600203F040020F0B50400EB
:1046F80085B0002801D103207EE001263F4F3B68AA
:104708003340019301D0012076E03D4D0C22280072
:10471800019903F02BFC20786E70002802D0012844
:1047280049D060E010233F681F40ECD160682F70CB
:104738000028E0D0A1680029DDD0E268002ADAD09C
:104748000425304C23782B4323702F4B03AD18607E
:104758002E4B2F7019602E4B1A60FEF799F82D4BCF
:1047680030211C880134A4B21C80200003F026FEEE
:1047780089B2002914D01F2337001C4210D01821F9
:10478800200003F01BFE89B20227002908D0013758
:10479800230705D004373C40674267410523DF1BE8
:1047A8001D4B28005F7000231A001900FEF7E6FE73
:1047B800002821D018E00421124A287013780B43EE
:1047C8001370164B16491C780F230A781B1BDBB293
:1047D800934209D9531C0B700221124B9954124B66
:1047E8001870019808E00220002204210F4B1A706B
:1047F800044A13788B43137005B0F0BD04030020FE
:10480800AC050020880B0020D4060020E40200201C
:10481800D0060020DE020020BC0B0020C8060020C5
:104828001B040020F0020020190400203E0500208F
:10483800F0B5040085B0002801D1032558E02E4BBF
:104848000125196811231940019151D16B462B4F4D
:104858001B7903AE10223800337003F087FB2378EE
:104868007D70AB4217D0002B0ED0032B25D1202210
:104878000A20234B52421D7033782056134333705D
:104888006268238901991AE01D4B32781D701F2335
:104898001340402209E01B4A1370E27B184B1A7040
:1048A8001F2332781340802252420E201343337064
:1048B8002179A268A389205601E0022518E0124D4B
:1048C8002D78002D03D10028B7D1104D6870300025
:1048D800FEF754FE002807D1012123780C4A3B70CB
:1048E80013780B43137002E000220A4B1A7005007C
:1048F800280005B0F0BDC0460403002008030020CE
:104908009100002090000020CE020020BC0B002067
:10491800880B00203E050020014B18707047C046E8
:104928001A040020F7B50E000700019208AA1C4CD3
:104938001178099A6171190A1A4DA371E171190C5C
:104948001B0E6372130A2800A272E372130C120E74
:1049580023736273E673217200F03AFD280001990F
:1049680000F046FD28002100102200F048FDF2B2B8
:104978003900280000F043FD0B4C2900200000F00E
:104988009CFD62782078A378120202431B0413432B
:104998001A00E3781B0613430A9A1360F7BDC04652
:1049A800D40000200807002021090020F0B585B0B8
:1049B8001D00314F0AAB1B7801900E00380002929F
:1049C8000021F0220B9C039303F0D0FA3A00102147
:1049D800029800F0C3F96A46284B127B9D715A7100
:1049E8002A0ADA712A0C2D0E5D72370001251A7217
:1049F800220A9C72DA72220C240E1A735C732C0041
:104A08000F342401E4B20F2F17D91C481A4A1C4945
:104A1800C57300F023FA00230C9A1119019A121990
:104A2800D05C174A9A5C4240CA540133102BF3D128
:104A3800103F0135BFB2EDB2E1E733091C01341B69
:104A48001F01A4B2FFB20133002C13D00C4D0B4848
:104A5800094A2900C37300F001FA00230C9AD119FE
:104A6800019AD219D05CEA5C4240CA5401339AB226
:104A78009442F3D805B0F0BD30080020E4000020CF
:104A88002008002030B585B00A9D08AC247802952E
:104A9800099D00940195FFF789FF05B030BD00001E
:104AA800F7B507000D00104C1E002000019200F021
:104AB8008FFC0199200000F09BFCEAB2390020002D
:104AC80000F09DFC094D2100280000F0F6FC6A78F2
:104AD8002878AB78120202431B0413431A00EB78C0
:104AE8001B0613433360F7BD080700202109002087
:104AF800F7B51D0004000E4E0F0001920021F022B0
:104B0800300003F033FA32001021019800F026F942
:104B180032002900200000F0A1F90F2F06D9290042
:104B2800200010311030320000F098F9F7BDC0466F
:104B380030080020F0B587B000936B460400224D82
:104B4800DA800F002800F02200219E1D03F00EFAE3
:104B58002A001021200002AC00F000F920001022E9
:104B6800002103F003FA0123237008336B44390052
:104B78001800062203F0E5F90F236B4418003100F2
:104B8800022203F0DEF92A000099200000F066F9FD
:104B980020001022002103F0E9F9022323700923E1
:104BA8006B4439001800062203F0CBF90F236B443D
:104BB80018003100022203F0C4F92A000C992000E1
:104BC80000F04CF907B0F0BD3008002080221C49E5
:104BD80092004B6B70B513434B631A4A1A4B1B4C2C
:104BE8001A6001229A608022D20322608022520039
:104BF8005A61802292029A62012218681042FBD000
:104C080011480260042004259A682A439A60042502
:104C18001E680D4A2E42FAD0013815600028F2D1DC
:104C2800106C023D80B2956001229D682A40FBD13C
:104C3800054B9A6022604A6B054B13404B6370BD6D
:104C480000100240FFFF0000002401400827014037
:104C5800FFFDFFFF0B780278534003704B784278D2
:104C6800534043708B78827853408370CB78C278F6
:104C78005340C3700B790279534003714B794279E1
:104C8800534043718B79827953408371CB79C279D0
:104C98005340C371027A0B7A53400372427A4B7ABB
:104CA80053404372827A8B7A53408372CB7AC27AAA
:104CB8005340C3720B7B027B534003734B7B427B95
:104CC80053404373827B8B7B53408373C27BCB7B84
:104CD8005340C373704710B513780C786340037062
:104CE8004C785378634043708C7893786340837032
:104CF800CC78D3786340C3700C791379634003711F
:104D08004C795379634043718C799379634083710B
:104D1800CC79D3796340C3710C7A137A63400372F8
:104D28004C7A537A634043728C7A937A63408372E5
:104D3800CC7AD37A6340C3720C7B137B63400373D2
:104D48004C7B537B634043738C7B937B63408373BF
:104D5800C97BD37B4B40C37310BD00000B00F0B57B
:104D6800103BDBB287B00E001500102B05D80122CE
:104D78009A401300374A134204D10023F0352B70B0
:104D8800FF2065E00023C25CEA5401339E42FAD159
:104D980033002A001C339B00DBB205931B09013B3F
:104DA800F03213700123340004932B191A1F17785B
:104DB800DA1E1278310001929A1E013B12781B7894
:104DC80020000292039303F0F9FAC9B2002917D11F
:104DD800214B019A04999A5C4A400299595C0191C5
:104DE8000399595CDB5D02910393049B1700D90971
:104DF8001B234B43049949004B40DBB204930EE05C
:104E0800182E0CD910290AD1134B019ADF5D9A5C30
:104E18000192029A9A5C0292039A9B5C0393A31BE9
:104E2800DBB2EA5CEB1857402F55597801982A19DC
:104E38004840507099780298043448409070DB7864
:104E48000399E4B25940059BD170A342ADD8002024
:104E580007B0F0BD01010100BEAC00081300F0B5B9
:104E680097B0F033119117001A78FF23002A00D168
:104E780031E101003A0012A8FFF72DFF012300934A
:104E88003B00F0331B78009A934200D8E7E012AB5E
:104E98005B789249049312AB9B78059312ABDB784D
:104EA800069312AB1B79079312AB9B79089312AB4D
:104EB800DB79099312AB1B7A0A9312AB5B7A0B93DB
:104EC80012ABDB7A0C9312AB1B7B0D9312AB5B7BA3
:104ED8000E9312AB9B7B0F9312AB1B78019312AB13
:104EE8005B79029312AB9E7A8B5D109312ABDB7BDE
:104EF8000198CC5C03937A4B7A4A185C84466546E1
:104F08000298105C6840109D6840604012AD28709F
:104F18000198029D085C5D5D44406C40955D9E5D16
:104F28006C4012AD6C70029C039D0C5D604070403B
:104F3800565D12AD7040A870109844400198105CFE
:104F480044400398185C44400F98EC700D5C069838
:104F58000C5C07981E5C0B98105C704068406040C1
:104F680012AE307107980B9E085C9E5D44407440F9
:104F78000F9E965D744012AE74710B9C0F9E0C5D73
:104F88009E5D60407040069E6540965D704012AE22
:104F9800B0710798145C069865401C5C05986540DC
:104FA800F5710D5C09980C5C0A981E5C0E98105CF3
:104FB80070406840604012AE30720A980E9E085CDD
:104FC8009E5D44407440059E965D744012AE7472B6
:104FD8000E9C059E0C5D9E5D60407040099E65407C
:104FE800965D704012AEB0720A98145C09986540DC
:104FF8001C5C08986540F5720D5C0C980C5C0D986B
:105008001E5C0498105C70406840604012AE3073BB
:105018000D98085C049E44409E5D7440089E965D11
:10502800744012AE7473049C095D089C48401C5D72
:105038004D4060400D990C9C515C145D0C9A4D409C
:105048009B5C60405D40009BB0731901F573791853
:105058003000FFF7FFFD009B5A1CD3B20FE712AADE
:105068001E4B127812A99A5C12A80A700A799A5CE7
:105078000A710A7A9A5C0A720A7B9A5C0A734A78FD
:1050880049799A5C595C4170417A595C4171417B1C
:105098004273595C82784172817A9A5C595C827257
:1050A80081708279817B9A5C595C82738171C17A43
:1050B800C27B595CC173C179595CC172C178595CB2
:1050C8009B5CC171C370009B01001A01BA1811984A
:1050D800FFF701FE0023180017B0F0BDBEAC0008B2
:1050E800BEAD0008BEAB00080122014B1A70704724
:1050F80031090020F0B58027634B9FB01C780393DB
:10510800624D7F05624E002C64D1FBF7ADF8AB6BA6
:10511800604A1F43AF6333680125134080221201A0
:10512800134333600A231193023B1593063B1A93EA
:1051380080231B031C93802311A81B041D93129426
:105148001394149516951B94FBF750FE0F23290012
:10515800059305A80C3B0693079408940994FCF75B
:10516800E3F820230A9380230AA89B020F93FCF7F5
:10517800E9F9FCF7E1F9FA21890003F099F8FBF75E
:1051880079FA0420FBF790FA01202200210040421E
:10519800FBF71EFA0423062207213F4800935B19F8
:1051A80001F0E6F901F00EFB00F032FF00F06AFEB4
:1051B800FBF792F8FBF798F8FBF79EF80194009438
:1051C80023002A001321354800F0AAFA3448FBF7D7
:1051D80069F835E0AB6B2F4A1F43AF633368134060
:1051E800802212011343092233602B689343083A43
:1051F80013432B602B68254A5B07FBD58021136876
:1052080049040B431360D168264B0B4007210B431D
:10521800D3602B681D4A9B01FBD50321D3680B4340
:10522800D3600C23EA6813400C2BFAD1083B009397
:10523800062201330721184801F09AF901F0C2FA51
:10524800194801F0D7FA039B1B78002B1AD1039A4F
:1052580001331370154B1A781C00002A12D1144D13
:105268001449280002F054FDFA212800890002F0B0
:1052780013FE280002F054FD2378002B02D102F01F
:105288001BFEF9E71FB0F0BD3209002000100240F4
:1052980000700040FFE7FFFFE80C0020480C0020EA
:1052A80010270000F8FF02FFF40000203109002059
:1052B80034090020F150000810B5034801F004F942
:1052C80001F0A2FA10BDC046E80C002010B5FFF7A7
:1052D8007DFC01009920C00302F0EAFF80B210BDF6
:1052E80010B5FFF7F3FF0B4AFE2390420FD8962222
:1052F800FD3B120190420AD9074BC01804F01CFF6D
:10530800064B074A04F014F903F0A4F9C3B21800D5
:1053180010BDC046B70B0000A0F6FFFFA370CD3F3D
:10532800713D0AD7F7B50127214C2248636B224EFD
:105338003B4363630223E26A1A43E262E26A06605D
:1053480013400193C022019B002392000361C260B5
:105358008361436183604360C361FAF7D5FF051E2B
:1053680000D0FEE709223368010013433360134875
:1053780000F0C2F93800FAF795FF1048390000F03C
:10538800BBF90E4833685B0001D40135FAE7002108
:1053980000F0B2F90022084B28001A60E36A0232D2
:1053A8009343E362636B013A93436363FEBDC04674
:1053B80000100240EC0B00201C000140480C0020AB
:1053C80010B5FAF761FFFBF784F910BD01207047AB
:1053D80010B504001022F130002102F0C7FD2300AF
:1053E8000021FC339961F022200002F0BFFD10BDBE
:1053F80010B5020008001021FFF7B0FC10BDF0B591
:105408000600FC360500B06987B00091140000283A
:1054180044D010273F1A974200D91700AB1CFF331E
:105428001818BAB20099019302F08BFDB369FB1802
:10543800B3610F2B3FD9BC423DD02B00F13318008C
:1054480019781A7C4A401A70019A01339A42F7D1A6
:105458002A000100FFF702FD009BE41BDB19009303
:105468001CE01F7811780132794019700133984295
:10547800F7D12F00F1371022390002A802F061FDA0
:1054880002A92A000800FFF7E9FC102202A9380047
:1054980002F057FD009B103C10330093A81CFF300E
:1054A800102C03D92B00009AF133DAE7A2B2009945
:1054B80002F047FDB46107B0F0BD70B50C0088B0CC
:1054C800102200210500684602F050FD22006946BE
:1054D8006846FFF7C3FC6B461A7800237F2A12D967
:1054E8006A46D25C013351006A46D25C581ED20922
:1054F8000A4369460A540F2BF2D17922CB7B5242D8
:105508005B0053400EE06A46D25C013351006A46A4
:10551800D25C581ED2090A4369460A540F2BF2D1AD
:10552800CB7B5B006A46D3732300FC33996910294F
:1055380011D10023A21CFF3269461078C95C0133DF
:10554800414011700132102BF6D12300A01CF13319
:10555800FF30190044E0127800237F2A12D91A007C
:105568006B469B5C013258006B469B5C561EDB0900
:105578000343684683550F2AF2D1C37B883A5B0000
:1055880053400EE06A46D25C013350006A46D25C52
:105598005E1ED2090243684682550F2BF2D1C37BA7
:1055A8005B006A462000D37380226318FF339A7029
:1055B800FC308269511C00230F2904D80332FF32C2
:1055C800A3540A00F6E7A21C8161FF3269461078ED
:1055D800C95C0133414011700132102BF6D1B4E798
:1055E8001E781A7C72401A7001339842F8D104A8C8
:1055F800102202F0A6FC2200290004A8FFF72EFCC6
:1056080010220021684602F0B1FC08B070BD10B548
:10561800FAF748FE10BD0000F0B5050087B0140089
:105628001E1E5DD043880193012901D12D4B04E052
:10563800022901D12C4B00E02C4B029300270223B6
:1056480001A9686803970493FBF734F93900032C20
:1056580001D8274B195D80226B88520093422FD0C6
:105668000FD80724102B2ED004D8042B26D0082BB3
:1056780024D027E0402B23D0802B21D0202B21D1F0
:105688001EE08022520193421AD00AD88022D2000A
:10569800934215D080221201934211D080229200A9
:1056A80009E08022D20193420AD08022120293425A
:1056B80006D080229201934204D101E0062402E040
:1056C800072400E005240F232A7820001340094A04
:1056D8009B009E500022FAF77BFF2000FAF7AEFFEE
:1056E80007B0F0BD000011100000211000003110BB
:1056F800BEAE00084809002070B504000D0000285F
:1057080002D04368002B01D100F09EFA0023E35633
:10571800013304D0EAB261886068FBF79BFA70BD78
:10572800F0B58BB0150010AA040017784A1C6BD08E
:10573800017001200F2206000A409640F022668080
:105748001140324A0AD1A021C9056160D16A0143DA
:10575800D162D26A10400090009A30E010290AD134
:105768002B49D06A616002210843D062D26A114095
:105778000191019A23E020290AD12649D06A616063
:1057880004210843D062D26A11400291029A16E0BD
:1057980030290AD12049D06A616008210843D062C3
:1057A800D26A11400391039A09E01C49D06A6160EA
:1057B80080210843D062D26A11400491049A0222DF
:1057C800059607970892002D01D0032D01D1069563
:1057D80010E0022D08D1012B02D11133069300E00D
:1057E8000695119B099305E0012B01D1103300E0C8
:1057F8000123069305A96068FBF75CF8012D03D126
:1058080011992000FFF778FF0BB0F0BD001002409F
:105818000004005000080050000C0050001C00500C
:1058280070B50500002400F0DFFD002D0BD0EB075C
:1058380005D5054BA200D358002B00D0984701345A
:105848006D08E4B2F1E770BD4809002010B50348BF
:1058580002F0E0FA0122024B1A7010BDA4090020E0
:10586800140A002010B5034802F0D4FA0122024BB2
:105878001A7010BD000A00205601002010B5034818
:1058880002F0C8FA0122024B1A7010BD8C090020E0
:105898005601002070B50278D30906D0474802F0B7
:1058A800B9FA0122464B1A7084E0930700D481E0CC
:1058B800444B1D78002D0AD09C8901349C815206E6
:1058C80005D501229A730A7DDA734A7D1A74027823
:1058D80052076CD50A79002A69D0022A02D9E02A2F
:1058E80006D064E00B7B012B61D1374A13705EE070
:1058F800002D20D10A7B042A59D18A681178012900
:1059080055D15178012952D1917801294FD1D278B6
:10591800012A4CD1002401202C4ADF3114702C4A72
:105928009C8111702B4ADE3911709C73DC731C74D6
:105938001870587015E08A6810785870052836D89D
:1059480002F0A2FC0315191D2333012003210024B2
:105958001E4A9C8110701E4A1C7011701D4A4918FD
:105968001170FCF74FFE2000FEF7D6FF1FE0022261
:10597800184B1A701BE0012214490A7003E0002139
:10598800124A117001225A7011E00C7B114B124A15
:105998001C700423137000230133D8B2844206D943
:1059A8008868C05C0130D054F6E7FCF749FE0B4824
:1059B80002F0B6F901220A4B1A7070BD8C0900205A
:1059C800A0090020580C002088090020440100206C
:1059D800570100204D010020B8090020A40900202B
:1059E800A109002010B50E4B0E4A18780E490F4B2E
:1059F8001278002803D11878FCF72EFE03E01878F7
:105A08000823FCF74FFE032803D0053843425841CA
:105A180005E0002211001000FCF71EFE002010BD5A
:105A2800440100204D010020B80900205701002042
:105A3800F0B5002401258DB0FFF75CFB6C486D4B79
:105A480003606D4B4360FCF7BDFD6C4E6C4B300042
:105A58006C491C7002F05CF930006B4902F01CFACA
:105A68006A4B6B496B481D7002F052F96A4F6B49DB
:105A7800380002F04DF91921380002F00DFA28001B
:105A8800FCF7C0FD2800FCF739FE2000FEF744FFB4
:105A9800634B02AA1D0003CD03C2032002995A6872
:105AA800FEF7D6F804AB1A0003CD03C2042004990C
:105AB800059AFEF7CDF806AB1A0003CD03C2052000
:105AC8000699079AFEF7C4F808AB1A0003CD03C27B
