:020000040800F2
:100000000020002081010008595100085B510008C0
:1000100000000000000000000000000000000000E0
:100020000000000000000000000000005D5100081A
:1000300000000000000000005F5100089943000824
:100040000917000809170008091700080917000810
:100050000917000809170008091700080917000800
:100060000000000009170008091700080917000818
:100070000917000809170008000000000917000808
:100080000000000009170008000000000000000048
:1000900009170008000000000917000809170008E8
:1000A00009170008091700080917000809170008B0
:1000B00009170008091700080000000000000000F0
:1000C00073B501F00BFB002322482349234C1A1877
:1000D0008A4203D2E55804331560F8E70021204B2B
:1000E000204A934201D202C3FBE701F0FBFA01A9C7
:1000F000684601F0EBFA1C4B00251E001B4CE41A6D
:10010000A410AC4204DDAB00F35898470135F8E782
:10011000174B00251E00174CE41AA410AC4204DD56
:10012000AB00F35898470135F8E70199009804F0BF
:100130008FFB114B05001E00104CE41AA410002C7C
:1001400004DD013CA300F3589847F8E7280001F0CC
:10015000BAFAC046000000203801002004910008CF
:1001600038010020900C0020D8010008D8010008B8
:10017000D8010008D8010008D8010008D8010008FB
:1001800009480047FEE704207146084202D0EFF319
:10019000098001E0EFF308807146044A1047FEE74A
:1001A000FEE7FEE770470000C10000089F0100085D
:1001B000049100080000002038010020049100088C
:1001C000000000100000001038010020900C0020FA
:0801D000000000100000001007
:1001D800FA21084B10B589000400186806F014FDD0
:1001E80000F08CF9012000222100404200F04CF977
:1001F800002010BD080000204021064A10B51368F1
:1002080000200B431360FFF7E3FF04F027FF0020F3
:1002180010BDC04600200240024A13680133136033
:100228007047C046F8090020014B18687047C0465F
:10023800F809002013B50190FFF7F6FF0400FFF757
:10024800F3FF019B001B9842F9D313BD014B1868BB
:10025800000C704700580140024B18680005000D5B
:100268007047C046005801400121024A53688B4339
:1002780053607047005801400221024A53688B437B
:1002880053607047005801400421024A53688B4369
:1002980053607047005801400023F0B585B0050051
:1002A800039301209D4200D1C9E02B681B68002BF5
:1002B80000DAC4E0AF1CFB7FDBB2002B08D12A18A0
:1002C800D377604A536B03435363280004F0E6FE78
:1002D8002A682B6901926C695B4A01991C43914217
:1002E80023D1A968EA680A431443190040229143BC
:1002F80003D01022503B934317D18021534B49011F
:10030800186A1A6A0A431A6208420ED1504B5149B8
:10031800186806F079FC504B58430390039B002B58
:1003280003D0039B013B0393F8E7AB694B4E002BCB
:1003380033D0019AB24202D1012B2ED12AE0FFF725
:100348008BFF474B984205D0FFF786FF454B9842F5
:100358000DD106E0FFF77AFF80235B019842F3D1C5
:1003680015E0FFF773FF80235B0198420FD0FFF77A
:1003780073FF3C4B984204D1FFF768FF3A4B984211
:1003880005D0AB69012B02D0022B03D005E08023F6
:100398009B0101E080235B011C432A68B24205D11E
:1003A8003168324B0B401C43346004E01168304B19
:1003B8000B401C431460802369685B00994202D19A
:1003C80033680B4302E031682A4B0B403360B2427A
:1003D80002D08022D20301E080229203E969264BF1
:1003E800880723D0C80602D59868104301E09868AA
:1003F80090439860880602D5D868104301E0D86811
:100408009043D8601C485A618C0702D5446814434D
:1004180001E0446894434460C90702D519680A4357
:1004280002E0196891430A001A6002E05968914392
:1004380059600020FB7F834201D10123FB7705B07F
:10044800F0BDC046001002401C0001400000014001
:100458000800002080841E00B80B0000180001402E
:10046800470400001704000008100000CF6EFFFFCB
:100478008748FFFFFFFEFFFF00040140036818687C
:100488004000C00F7047000070B58901002814DAD9
:100498000F23C0B20340083B114A9B0803249B006A
:1004A8009B18FF222040A04014000A40844082404C
:1004B800DD69A5432A43DA6111E08208094B032567
:1004C8009200D218FF232840A8401D00C024854070
:1004D8000B408340A4001659AE433343135170BDFB
:1004E80000ED00E000E100E01F2318401E3B8340C0
:1004F800014A13607047C04600E100E0094A431E04
:10050800012093420DD8C020074A084953600B6A5E
:1005180000061B021B0A03430B620020072390609E
:1005280013607047FFFFFF0010E000E000ED00E0FF
:10053800054B1A68042802D11043186002E0042110
:100548008A431A607047C04610E000E0704710B553
:10055800FFF7FCFF10BD0000F0B5534A0B68821886
:10056800541EA24185B00193002305320392019ADB
:10057800DA4000D196E001269E40019A324000926E
:1005880000D18DE04A6894461022644694432200C4
:10059800013C022A0ED107240F271C40A400A740C3
:1005A800DA0892008218156ABD430F69A7403D43D7
:1005B800156201E0012C10D803245D00AC4082686C
:1005C800A243CC68AC4022436446E406E40F9C4056
:1005D80082604268B24322434260032634005D00D1
:1005E800AC406746E4433740AF40026822403A4394
:1005F8000260C26814408A68AA4014436246C46014
:10060800D2004DD50125294C0F27626B2A431D00C6
:100618003540AD00AF406263254A9C08A400A41889
:10062800A268BA43A0270292FF050022B8420CD064
:10063800204F0132B84208D01F4F0132B84204D0CF
:100648001E4F3200B84200D0039AAA406746029D66
:100658002A43A2601A4A009C1668009DE443354369
:10066800FF0301D435002540674615605668009D94
:100678003543BF0301D43500254067465560966869
:10068800009D3543FF0201D435002540674695603B
:10069800D568009E2E43BF0201D425402E00D660A7
:1006A800013364E705B0F0BD00E4FFAF001002407D
:1006B800000001400004005000080050000C0050E9
:1006C80000040140F0B5374A85B0821801915142C3
:1006D800514100230391019ADA4061D001229A40E6
:1006E80094466146019A0A40009257D00326340086
:1006F8005A009440E2430168072511400160D90877
:10070800890041180C6A1D4002940F242700AD008F
:10071800AF403D00029FAF4365460F6281681140BC
:1007280081604168A9434160C1681D000A40C260F8
:1007380099081D4A89008918A0223540D205AD00C4
:10074800AC4094468F6800222740604511D0174A74
:100758009446012260450CD0154A94460222604511
:1007680007D0144A94463200604502D0B219039E5D
:10077800921BAA40974211D18A68A2438A600099C5
:100788000D4AC94314680C40146054680C40546006
:1007980094680C409460D4682140D16001339AE792
:1007A80005B0F0BD00E4FFAF0000014000040050B8
:1007B80000080050000C005000040140002A01D03D
:1007C800816100E0816270471021024A13688B43FF
:1007D800136070470070004010B503240A4A13687C
:1007E800A343184310600420084B1A6902431A6196
:1007F800012901D130BF02E040BF20BF20BF042142
:100808001A698A431A6110BD0070004000ED00E0CB
:100818008021034AC90013680B4313607047C04620
:10082800007000408021034A890013680B4313605D
:100838007047C046007000400C211B4A10B5536831
:10084800D0681B0408405B0F06F0CAF9252525254A
:10085800072525252A2525250C001368DB0621D424
:10086800124820E0D3681248D1689B021B0FC05C75
:100878000902D368890F0131DB0307D40A4B1B68CF
:10088800DB0601D50B4B02E0084B00E00A4B58434E
:1008980006F0BAF907E0802001330002984002E030
:1008A800054800E0034810BD001002400024F40091
:1008B800AC8B000800093D0000127A00F0B503680F
:1008C80085B00500DB0703D42B689B075BD4A3E046
:1008D8000C23C24CE2681A40082A08D08020E2683B
:1008E800400213400C2B0AD1E368034207D0236867
:1008F8009B03E9D56B68002BE6D10120FAE1802241
:1009080069685202814203D12368034323601DE0D2
:10091800A020B34BC00281420BD121680B4080213B
:1009280023602368C9020B43236023681A432260AB
:100938000CE020680340236023681A400392039B5D
:100948002268A84B1340236000290ED0FFF76CFCE7
:1009580080260700B60223683342B5D1FFF764FC4E
:10096800C01B6428F7D90320C4E1FFF75DFC80268B
:100978000700B60223683342A6D0FFF755FCC01B18
:100988006428F7D9EFE70C23944CE2681A40042A4C
:1009980006D0E26813400C2B10D1E368DB030DD4BA
:1009A80023685B0702D5EB68012BA6D12A69636827
:1009B80011028D4A13400B4363602DE0EB68092157
:1009C800002B19D0226804268A4313432360FFF7BB
:1009D8002BFC070023688148334205D1FFF724FC2C
:1009E800C01B0228F6D9BEE72A69436811027E4A6D
:1009F80013400B4343600FE0236804268B432360B6
:100A0800FFF712FC07002368334205D0FFF70CFC00
:100A1800C01B0228F7D9A6E72B68DB065DD50C2397
:100A28006E4CE2681A4221D123689B0503D5AB6955
:100A3800002B00D161E762686C4B13402A6A1343AC
:100A480063606368EA691B0212061B0A134363604A
:100A5800FFF7F2FEE368664A1B061B0FD35CD8401B
:100A6800644B18600020FFF7B3FB36E0AB69002B3E
:100A780021D080222368520013432360FFF7D4FB60
:100A880080260700B6002368544A334205D1FFF791
:100A9800CBFBC01B0228F6D965E75168534B0B40C6
:100AA800296A0B4353605368E9691B0209061B0A4C
:100AB8000B43536011E022684F4B8026134023609C
:100AC800FFF7B2FB0700B6002368334205D0FFF7F3
:100AD800ABFBC01B0228F7D945E72B681B0703D4DB
:100AE8002B685B0725D4A7E06B6901223B4C002BE0
:100AF8000FD0236D022613432365FFF795FB0700EC
:100B0800236D3342ECD1FFF78FFBC01B0228F7D9C6
:100B180029E7236D022693432365FFF785FB07002A
:100B2800236D3342DCD0FFF77FFBC01B0228F7D9C7
:100B380019E780220021294C5205A36B009113422A
:100B480004D1A36B1343A3630123009380270022DE
:100B58002A4E7F00336801923B4211D133683B43F0
:100B68003360FFF761FB019033683B4206D1FFF722
:100B78005BFB019BC01A6428F6D9F4E601230193B4
:100B88008021AA6849008A4203D1236D1A4322654D
:100B9800A1E0194B002A0AD1226D13402365226D6A
:100BA800174B13402365FFF73FFB070031E0A020F8
:100BB800C00082420AD1226D134080222365236D32
:100BC800D2001A432265236D0B4305E0226D1340C2
:100BD8002365226D0A4B134023657CE00010024018
:100BE800FFFFFEFFFFFFFBFFFFE0FFFFFF1FFFFF11
:100BF8009C8B000808000020FFFEFFFF00700040EB
:100C0800FFFBFFFFFFF710FB3B4BC01B984200D9CF
:100C1800A9E68022236D92001342F3D1019B012B98
:100C280003D13268354B13403360009B012B03D14D
:100C3800A26B334B1340A3636A6A002A01D10020D8
:100C480058E00C232F4CE1680B400C2B00D154E6E4
:100C58002D4B022A2ED12268802613402360FFF7ED
:100C6800E3FA0700B60423682649334205D0FFF7A4
:100C7800DBFAC01B0228F6D975E62A6BE86ACB684E
:100C88001043AA6A80251043204AAD0413408022ED
:100C98000343CB600B68520413430B60FFF7C4FA9D
:100CA800060023682B42CAD1FFF7BEFA801B022830
:100CB800F7D958E62268802513402360FFF7B4FA75
:100CC8000600AD0423682B42B9D0FFF7ADFA801BAC
:100CD8000228F7D947E6FFF7A7FA07008022236D15
:100CE800920013429AD1FFF79FFA034BC01B984218
:100CF800F4D938E605B0F0BD88130000FFFEFFFF09
:100D0800FFFFFFEF00100240FFFFFFFEFFFF02FFA3
:100D18000123F7B5524E050032680F001A408A4287
:100D28000AD32A68930711D5F0204E49CB6883432C
:100D3800A8680343CB6009E032689A430A433260EB
:100D4800326813409942ECD0012088E0D30706D4DA
:100D58000123326842491A40974257D95EE0414C14
:100D68006B682268022B02D192030CD4ECE7002BAB
:100D780002D1920507D4E7E7032B02D1920102D4EE
:100D8800E2E75207E0D50321E2688A431343E360B0
:100D9800FFF74AFA6B680190022B0DD10C22E36829
:100DA8001340082BD4D0FFF73FFA019BC01A2E4BF3
:100DB8009842F3D9032052E0032B0CD10C22E368AC
:100DC80013409342C4D0FFF72FFA019BC01A264B59
:100DD8009842F3D9EEE7002B12D10C22E3681342B4
:100DE800B6D0FFF721FA019BC01A1F4B9842F4D9DD
:100DF800E0E7FFF719FA019BC01A1B4B9842D9D8B4
:100E08000C22E3681340042BF3D1A1E70A689A4344
:100E18003A430A600A6813409F4295D12A68114CE8
:100E2800530705D5E168114B0B40E9680B43E360B4
:100E3800130706D5E36829690D4AC90013400B4317
:100E4800E360FFF7F9FCE3680A4A1B061B0FD35C53
:100E5800D840094B18600020FFF7BAF90020FEBD02
:100E6800002002400010024088130000FFF8FFFF36
:100E7800FFC7FFFF9C8B000808000020014B186883
:100E88007047C046080000200368F7B505009B06B8
:100E980069D5C0214C4C4369226889035A400A42EB
:100EA80009D0C02292021340934204D12368012042
:100EB8009B0300D586E080228027A36B520513434D
:100EC800424EA36333687F003B433360FFF7ACF9BE
:100ED800019033683B4207D1FFF7A6F9019BC01A7E
:100EE8006428F6D903206DE06969226D364B4A40C3
:100EF800C02189020A4236D08027196D1A6D0E006A
:100F08003F033A431A651F6D3148324A06403A405A
:100F18001A651E658026B600019031420ED16869B7
:100F2800C0220100920211402B4B914213D122683A
:100F38001340C0229203024013430EE0FFF774F9F6
:100F48000700236D3342EAD1FFF76EF9234BC01B2C
:100F58009842F6D9C6E7226813402360236D019AA8
:100F68001340194321652B68DA0706D50320164973
:100F7800CA6C824368680243CA649A0706D50C2083
:100F88001149CA6C8243A8680243CA645A0706D545
:100F98000D49134AC86C0240E8680243CA641A073C
:100FA80006D509490F4AC86C024028690243CA6439
:100FB80000201B0606D504490B4BCA6C1340AA69CE
:100FC8001343CB64FEBDC0460010024000700040D1
:100FD800FFFFFCFFFFFFF7FFFFFFCFFF88130000B5
:100FE800FFF3FFFFFFCFFFFFFFFFF3FFF7B5022778
:100FF800451CEB7F04003800012B4DD00123CA2289
:10100800EB772368E619F7775A62773A5A62AD3276
:1010180091421AD19968214A0A409A609968204AEF
:101028000A409A60FFF700F90123009001932368B2
:10103800019FDB681F4019D1FFF7F6F8009BC01A23
:10104800FA239B009842F2D920E09968154A0A4091
:101058009A609968144A0A409A60FFF7E5F8019780
:1010680000902368DF68019B1F4007D0FF22236898
:1010780000205A620123F377E8770DE0FFF7D4F8F0
:10108800009BC01AFA239B009842EAD9FF2203204A
:1010980023685A62F077EF77FEBDC046FFFEFFFF78
:1010A800FFEFFFFFFFFDFFFFFFDFFFFFA02102684B
:1010B800F8B5D36804008B43D360FFF7B5F8FA2777
:1010C80006002025BF002368DB682B4206D1FFF706
:1010D800ABF8801BB842F6D9032000E00020F8BD29
:1010E800F8B5402403680500DA68224201D00020E0
:1010F80011E001225242DA60FFF796F8FA2706005B
:10110800BF002B68DB682342F1D1FFF78DF8801B05
:10111800B842F6D90320F8BD70B504000120002CB0
:1011280041D0A51CEB7FDBB2002B04D12218D3776A
:10113800200003F0C7FF0223CA22EB7723682000B0
:101148005A62773A5A62FFF7CBFF2368002805D026
:10115800FF225A6204230120EB7724E09968124A9F
:101168000A409A609A6861680A4321690A43A1693A
:101178000A439A60E268A1681A611A6909040A4375
:1011880080211A61DA688A43DA60DA6C7D398A4329
:10119800DA64DA6CE1690A4361690A43DA64FF22B6
:1011A8005A620123EB7770BDBFFF8FFF0023092828
:1011B80003D90A380133C0B2F9E71B011843C0B29A
:1011C800704700000223F7B5471C0C00F97F0500A3
:1011D8001E0001296DD00121F977C118CB77009144
:1011E8004021036866789B6820780B40002A16D156
:1011F800002B00D1E370FFF7D9FF01903000FFF713
:10120800D5FF0600A078FFF7D1FFE37836021B046C
:101218001843019B1B041843304301900BE0002B3B
:1012280000D1E370000436020643E378A0781B047B
:1012380006431E430196CA222B6828005A62773A51
:101248005A62FFF74DFF2B68061E07D0FF225A622D
:101258000423009AD3770023FB7720E01648019AED
:1012680002401A609968154A0A409A609A68E168CB
:101278000A4321690A4380219A60DA688A43DA605E
:101288009B689B060DD42800FFF710FF002808D0A4
:10129800FF222B685A620423009AD377FE7701262F
:1012A80007E0FF222B685A620123009AD3770023B4
:1012B800FB773000FEBDC0467F7F7F00FFFFFBFF4E
:1012C8000223F0B5471C0D00F97F85B004001E000D
:1012D80001295FD00121F977C1180191CB776B788B
:1012E800E878AE78002A4DD11032134203D09343E8
:1012F8001A000A326A70FFF759FF02906878FFF700
:1013080055FF03903000FFF751FF2D78029B6D03C6
:1013180028431B041843039B1D020543CA22236864
:1013280020005A62773A5A62FFF7DAFE2368061EEF
:1013380007D0FF225A620423019AD3770023FB7750
:1013480015E08021154805405D60DA688A43DA6057
:101358009B689B060DD42000FFF7A8FE002808D044
:10136800FF2223685A620423019AD377FE77012665
:1013780010E0FF2223685A620123019AD3770023E1
:10138800FB7707E000041B022D78034333436D030A
:101398001D43C3E7300005B0F0BDC0463FFFFF0066
:1013A800F7B5431C00930D00D97F022304001800F1
:1013B800012900D1B3E001216018C177E118CB778A
:1013C8004021236828789B686E78AF780B40002A04
:1013D80021D1002B00D1EB70FFF7E8FE019030001F
:1013E800FFF7E4FE06003800FFF7E0FE07006B1C7D
:1013F800D87FFFF7DBFE6B69EA6936021A43EB78A0
:1014080000061B0413431F43019B1B041F433E4359
:101418000643370011E0002B00D1EB70EB696A69D5
:10142800000413431F43074336023E43EF786B1C07
:101438003F043E43DF7F3F063743AA696B68696A0A
:101448001343CA22019323685A62773A5A62AD322B
:10145800914224D19968324A0A409A60DA6831493F
:10146800D2B20A43DA60FEF7DFFE060001222368E3
:10147800DD68154007D1FEF7D7FEFA23801B9B00D5
:101488009842F3D923E08021019ADF615A649A686F
:1014980049000A4380219A609A6849012BE09968BB
:1014A800214A0A409A60DA682049D2B20A43DA60CF
:1014B800FEF7BAFE060002222368DD6815400FD148
:1014C800FEF7B2FEFA23801B9B009842F3D9FF2255
:1014D8000320236802345A62009BE077DD771EE020
:1014E8008021019A1F629A649A6889000A438021C0
:1014F8009A609A68890180200A439A600C4B80029E
:101508001968014319609A6802439A60FF222368A8
:1015180000205A6201230234E377009BD877FEBD8E
:10152800FFFEFFFF7FFEFFFFFFFDFFFF7FFDFFFFC9
:10153800000401400A2302095A43053318401018D1
:10154800C0B2704770B50C0001683F208B6A6360B9
:101558000B690D685B045B0CA3600E4B1D407F2379
:101568002E0A290C1E401D403F3B08400B402070AE
:101578006670A570E370002A0AD1FFF7DBFF2070C0
:101588003000FFF7D7FF60702800FFF7D3FFA07087
:10159800002070BD7F7F7F000223F7B5451CEA7FDE
:1015A80004001800012A2DD00122E618EA77F37703
:1015B8002368C9325A62773A5A629968124A0A40CD
:1015C8009A609968114A0A409A60FEF72DFE0190C8
:1015D80004272368DA6817400ED1FEF725FE019B21
:1015E800C01AFA239B009842F2D9FF2203202368ED
:1015F8005A62F077EF7705E0FF2200205A62012354
:10160800F377E877FEBDC046FFFBFFFFFFBFFFFF94
:1016180070B504000120002C37D0250051352B78F7
:10162800DBB2002B05D1220050321370200003F0EA
:1016380059FD022340212B702368A0691A688A4348
:101648001A60A16862680A43E1680A4321690A438B
:1016580061690A43E1690A43216A0A43A16A0A43A4
:101668008021890001400A431A600422000C1040BE
:10167800626A1043E26A58601A61D969034A002015
:101688000A40DA61012360652B7070BDFFF7FFFF28
:1016980070B504000120002C10D025000223402141
:1016A800226851352B70136820008B43136003F0B8
:1016B80039FD0020503460602870207070BD10B56E
:1016C80000F010F801230360014B0B607047C0461F
:1016D8000000002010B500F015F810BD10B500F09E
:1016E8003FF810BDBFF34F8F034A044BDA60BFF3D6
:1016F8004F8FC046FDE7C0460400FA0500ED00E044
:10170800FEE700008021104B49001A680A431A605E
:10171800D9680E4A0A40DA6019680D4A0A40012160
:101728001A609A688A439A6019680A4A0A401A60D5
:10173800D968094A0A40DA6000221A618022074BF8
:1017480012059A607047C046001002400C40FF889E
:10175800F6FFF6FEFFFFFBFFFFFF02FF00ED00E0D4
:101768000C2370B51B4C1C4DE068184005F038FA86
:101778001F1F1F1F071F1F1F091F1F1F0B00174BAE
:101788001DE0174B1BE0E368164AE1689B021B0F3C
:10179800D05C0902E368890F0131DB0301D40F4BE8
:1017A80000E00F4B584305F02FFA286008E080222C
:1017B800636812021B045B0F01339A4013002B600D
:1017C800E368094A1B061B0FD35C2A68DA402A60C3
:1017D80070BDC04600100240080000200024F4003C
:1017E80000127A00AC8B00089C8B000870B50224AC
:1017F8004378184930250B70174B1A7822431A7012
:101808000322447C224014011A78AA4322431A7006
:1018180001228478283D2240D4001A78AA43224322
:101828001A70427B1C00002A03D004221B78134341
:101838002370C3780B7183688B60037B0B73C38938
:10184800CB81037C20000B74044B1B689847002352
:10185800237070BD4C0100206C0100206401002041
:1018680010B5044B044C1B6804492000984700231A
:10187800237010BD640100206C0100204C01002081
:1018880010B5012442780A4B0A491A700A78224393
:101898000A708278DA7042799A7002795A70064B27
:1018A8001A7806231A4201D1FFF7DAFF10BDC046A5
:1018B8004C0100206C010020FC090020427810B582
:1018C800104B002A15D1017800290CD0012910D11C
:1018D8000D4C22780A4342210A432270027A1A7573
:1018E800427A5A7505E07D22074952420C78224314
:1018F8000A7042781A70054B1B789B0701D4FFF7D2
:10190800AFFF10BD4C0100206C010020FC09002035
:10191800094B0A4A10B51A60094A0A495A600A4A24
:101928009A6002680A60426818004A6007490A60BB
:1019380001F0C8F810BDC046400100208918000811
:10194800F517000864010020C51800083C010020B4
:101958001FB5022201AB187118001A7001F0E0F9E6
:1019680005B000BDF0B51D00032385B001AC0290A1
:1019780020000F001600237001F0D2F90423200084
:101988002370676001F0CCF905232000237066609E
:1019980001F0C6F9062320002370656001F0C0F944
:1019A800012320002370237101F0BAF905B0F0BDBE
:1019B800F0B5050089B00F001600002118220D4867
:1019C80004F080FF132301AC2000237001F030F9EC
:1019D800002304A8037087608681057123798373C7
:1019E80001F0BAFF01230A2801D8034B1B5C180039
:1019F80009B0F0BD4C010020B58B00081FB50722C7
:101A080001AB187118001A7001F08AF905B000BD11
:101A1800F0B591B00E9316AB1B78344D0B93344B45
:101A280006005B5C0F000C936B680D920F93984750
:101A3800041E59D1EB6830000F9398472D4B1F7146
:101A4800072F20D10C9807F023F800222A4B06F024
:101A58001BFA05F0ABFA0B9B0200099301230593CF
:101A680004330193254B20000093AB6908940C9331
:101A780007940694049403940294230020490C9E2E
:101A8800B047200016E00B9B012609930E9B079494
:101A9800029308230193AB6906940E93059404946A
:101AA800039400943000089633000C9A0D990E9C0C
:101AB800A0473000134B1B78002B01D0124B00E0DD
:101AC800124BD95D2B6D0D310C93C9B298470B9B06
:101AD800002B05D16B6B0B930D4B58680B9B02E0E9
:101AE80000206B6B0B93984711B0F0BD348F000842
:101AF800C08B00087001002000408F408545010020
:101B080050C30000B5050020C88B0008D68B00081C
:101B1800300A0020064B1B78002B01D0054B00E053
:101B2800054B595C0023821891425B41D8B270473B
:101B3800B5050020C88B0008D68B000830B50123F6
:101B480004000020104DEB5684421BD00F4C8342FA
:101B580002D12360180015E024683F2C12D9012017
:101B68005F2C0FD9E4060DD1002B0BDD013BDCB255
:101B780063B2002C06D10B1E04D00721AB8C0B439B
:101B8800AB842300137030BD300A00207804002095
:101B980010B50024244B254A1C7001231360244AE5
:101BA8001460244A1460244A1470244A1370244A86
:101BB8001370244A1470244A1470244A1380244A47
:101BC8001470244A1470244A1370244A244B117840
:101BD8001970517859705168596091689960D16845
:101BE800D9601169196151695961517E5976117E1F
:101BF8001C3219761C3303CA03C30C2219491A482C
:101C080004F04BFE194B1C70194B1C70194B1C70BF
:101C1800194B1B68002B02D05C629B6AFAE7102202
:101C2800164B1A7010BDC0461A040020CC000020C4
:101C3800A801002078040020F10100208D00002078
:101C48008C00002084040020B401002088010020BA
:101C5800F3020020940500208E000020000A0020D6
:101C6800300A0020240A0020540A0020160400200C
:101C7800AC010020F102002098050020B8010020E6
:101C880010B50C4804F072FD0B4B1B78002B07D0E5
:101C980001220A4B1A700423094A116899431160FA
:101CA800084B1B78022B04D10821074A13780B43F1
:101CB800137010BDBC050020160400208404002009
:101CC800DC010020A4050020FC09002013B51348FE
:101CD80004F04CFD0122124B12481A708318D97F68
:101CE800CB1E934207D9052908D00E23062907D011
:101CF8000022052304E00022082301E000220A2331
:101D0800094C49B22478022C01D0002400E00124B7
:101D18000094C069FFF77CFE13BDC0464404002050
:101D280094010020300A0020A40500200B4B07B5C1
:101D38001B78022B04D00A4BDB6A0193984701E019
:101D4800FFF7C4FF02230821064A5370064A53705E
:101D5800064A13780B43137007BDC046A40500203C
:101D6800348F0008E001002098010020FC090020C1
:101D78004023114A10B511680B4313600F4B1B78B1
:101D8800002B01D0FFF77CFF0D4B1B78002B05D1F2
:101D98000C4B1B78022B01D1FFF798FF0A230A4A44
:101DA8000A4C117820000B430121137004F020FD28
:101DB800200004F08FFC10BDDC0100201604002078
:101DC80094010020A4050020FC090020F402002052
:101DD8001FB51A4804F0CAFC0022194B1A70194B97
:101DE8001B78022B03D1184B1B6B03939847174A98
:101DF8005378527E9A1A52B2131C002A00DA002332
:101E080059B2033BDBB2012B06D9052907D00629B5
:101E180008D101220E2307E00022082304E0002253
:101E28000A2301E0002205230024094800780094D1
:101E3800084CC0000059FFF7EBFD1FBD300400201F
:101E480094010020A4050020348F0008300A0020E7
:101E5800B80100200C00002073B504F0D1FC334C0D
:101E680005002378022B04D0314BDB6A0193984795
:101E780001E0FFF72BFF2F4B2F4A1B7813702F4AD7
:101E8800DB00D3185A790C2353432D4AD3185D60CD
:101E98002C4B1D602C4B2D4D1B78002B2DD02C4B23
:101EA8002C4E1968300004F0A3FC300004F012FC3A
:101EB8002378022B08D0284E284B3000196804F0EC
:101EC80097FC300004F006FC2378022B02D02B7814
:101ED800002B21D0FA212248890004F0D3FC1F4BA3
:101EE800204C1968FA23DB00C9180918200004F0EF
:101EF8007FFC200004F0EEFB0EE01B4A5370032227
:101F08001A4B5A701A4B1A78002A01D101321A70EA
:101F180008211A780A431A702B78002B05D1124A27
:101F28005370144A13780133137073BDA40500204D
:101F3800348F0008B80100206D0100200C0000203B
:101F480090000020B80500208E0000201604002014
:101F5800A00500203004002044040020B001002027
:101F680018FCFFFFBC050020E001002098010020BC
:101F7800FC090020F101002037B50A4C0A4DA3687E
:101F880028700120019398472B78002B03D0236CED
:101F98003421019302E01221236C019339209847E0
:101FA80037BDC046348F00087C0400200F4B07B5AE
:101FB8001B78022B04D00E4BDB6A0193984701E093
:101FC800FFF784FE0B4B1B78012B0ED10A4B1B78B5
:101FD800002B02D00322094B5A7003220821084B18
:101FE8005A70084A13780B43137007BDA4050020E4
:101FF800348F00089401002016040020E00100201E
:1020080098010020FC0900200F4B07B51B78022B14
:1020180004D00E4BDB6A0193984701E0FFF756FEA8
:102028000B4B1B78012B0ED10A4B1B78002B02D0CF
:102038000422094B5A7004220821084B5A70084A96
:1020480013780B43137007BDA4050020348F0008D4
:102058009401002016040020E001002098010020CF
:10206800FC090020F0B58FB0059314AB1B880992CA
:1020780007930023C54DC64A059E0D932B80137008
:10208800731E9E41079B76421E40C24C0378069100
:1020980023700078400904F0ADFD08007501530075
:1020A80075015000750175016701BB4ABB49136989
:1020B8000027033B0B605369B94A033B13600123B4
:1020C800E0182B80B74B0822196804F0EFFB28882A
:1020D800B54B083080B2196808222880201804F00F
:1020E800E5FB2B8808332B80B04B5B690593984739
:1020F800AF4B82B21A802B88120AE054991C013324
:102108009BB2E254AB4A89B229800DABC9B21268BE
:10211800200001F05DFD2B880D9A591C100A89B228
:10212800E2546054991C89B2100C6054191D033391
:102138009BB2120E2980E25425E10122944B1A70B9
:102148009D4B07271B78002B00D11CE1069B9B4A5F
:1021580018780121F840FFF7F1FC0123069A18408E
:10216800830110784022012190431843069B8A4C32
:102178001870934BF0B21B780137089361561A0018
:10218800FFF7C8FC002800D1FDE0A368834A033BA1
:102198001360E368824A033B13608A4B1A78002A6B
:1021A80007D000221A70069B20321B781343069A28
:1021B80013706B46844F1B7F764C07933B68834EA6
:1021C8001A0A6370A2701A0C1B0E2371069BE27028
:1021D8001B787F4D637133687E49A3711B0AE371D5
:1021E8007D4B1A78089BE81804F057FB744A7A4B21
:1021F80010781B780599C018C0B2107008940A9717
:102208000B962A00754B002923D00799002920D066
:1022180008210F2827D81B78002B24D0069B0731CC
:102228001B781A07120F82180A408B431343069A29
:1022380081B2137063712A0000239DB2A94204D9A8
:102248009E5CE5182E720133F7E701000831C9B228
:1022580009E00821002806D01B78002B03D00023B2
:1022680007900993059200235C4A594C13701A0091
:10227800A446584C90421FD96546AD5C052D06D042
:10228800082D16D1534F5E1CFD54F3B211E0E554EE
:102298009D1CEDB206956546571CFFB25E1CEF5DAE
:1022A8000232F6B2D2B2A755AE5C069D0333DBB25A
:1022B80066550132D2B2DDE7474A1370002B02D0CF
:1022C8000122464B1A7000223D4B1A70059B93421F
:1022D8002BD0079B934228D02425684640190078C4
:1022E8002C4B4C1C585469463D48099D898BE4B2D7
:1022F800354B0290954207D1344A12680192099AE7
:1023080000921B68374A05E0304800680092019047
:102318001B68354A059801F0DDFB6B461D483049BE
:102328009A8B001904F0B9FA21000027079B174D72
:10233800C9180DAB298002930B9B2A4A1B6800978A
:1023480001930A9B08981B6801F080FB2A880D9B63
:1023580008998B548C18190A61700432190C1B0ED9
:10236800A170E3702A800EE0059F3B1E0BD000276A
:10237800BE4208D03200601C1900013604F08DFA04
:102388002E8000E0022738000FB0F0BD18040020AE
:102398001604002095040020300A0020A005002023
:1023A800B0010020BC0100209C050020348F0008EB
:1023B8007E0400208C0100201A040020310A00202D
:1023C800F3020020AC01002080040020CC00002093
:1023D800C80100200803002094050020F102002015
:1023E800F201002085040020A5050020F0B591B079
:1023F8000F91012100220124494E0E907156494B3C
:10240800494D5B56494F0A93B256494B7C709B56CF
:102418000B93484B99705C70DA70EB680C93984793
:102428000123F3560D97444F444E3978072B24D196
:102438002B6D00200C9398470523089600260A98D0
:10244800049402930796069605960396019606F05D
:102458001FFB00223A4B05F017FD04F0A7FDEB69BE
:1024680000900A930B9933003000364A0A9CA04723
:102478006B6A39780A93300030E0062B13D12B6D44
:1024880020000C9398470823002202930A9B089681
:102498000093EB6907920A930692059204940392BB
:1024A8000194230012E02B6D20000C939847082319
:1024B800002202930A9B08960093EB6907920A93FD
:1024C8001300069205920494039201940B9920003C
:1024D8000A9EB04720006B6A39780A939847FA2118
:1024E800194B144A1860184B184C1B6889009360E4
:1024F8000D9A2000536004F07BF9200004F0EAF8FC
:102508000D4B13481978084B9B6A0A939847012387
:102518000020104A11680B43136011B0F0BDC0468B
:10252800300A0020C08B0008348F00089801002072
:10253800D08B0008E001002018040020B80B000030
:1025480000408F40A8610000D8010020F40200205C
:1025580095040020DC010020F0B5934B89B01B786E
:102568000A20FF2B00D11DE1904F002B00D13B60CA
:102578008F4B904D1C78904AE4002B1959790C2305
:102588004B439E5A8D4B019218780023984216D1DE
:1025980004F03AF98A4A6423904206D9894B984252
:1025A80001D9894B01E0FA239B00321C9E4200D2DC
:1025B8001A1C864B96B21B685A1E9341DBB2844A9A
:1025C80011782A1900290AD051790C224A43019915
:1025D800013E8A187D4909684E43966005E05079A6
:1025E8000C224243019882189160002B0CD00C23D6
:1025F8002C196479774A5C43019B1C19A3689918C4
:10260800180004F03FF9A060734B704A1B881268E9
:10261800013B53433A689B183B601022002104A8F1
:1026280004F050F9002213006C4DA98C0120904051
:1026380004000C40A04201D10133DBB20132102A60
:10264800F4D1002B02D107331943A984644E3068B2
:1026580004F0DAF8554B1C68A04259D3564E0022B4
:10266800341D4036019601261A607642584B1B7875
:10267800002B16D02068676804F0C6F8874201D896
:10268800002363606768002F0DD0206804F0BCF851
:102698003F1AB74207D22068676804F0B5F83E1AB7
:1026A80001E01E006360019B0C34A342DED1AB8CB9
:1026B800404F0293414B1B7803930123EB569C46F2
:1026C800002319001800DAB20192029A01241A4173
:1026D800224203D10133102BF5D11EE0DC00E25970
:1026E800002AF7D0039A002A0CD0324DDA00AA1833
:1026F800127915072D176545ECDC52B21211944575
:102708003CDDE7E7072201251A412A42E2D0ECE73F
:10271800306804F079F8261A15E0002908D0013944
:10272800002004F0AFF804AB1A5C2E4B1A700CE0D2
:10273800002808D107212C4A284B52785A709A8CC5
:102748000A439A8469E7002E09D1264B19491A7859
:10275800D3005858CB185968FFF748FE22E01023D9
:10276800224A234C116820000B433100136004F007
:102778003FF8200003F0AEFF002013E00D4A1419C3
:1027880062790C2462430C4CA2189268002A06D184
:102798006D462D794A1C04AC6554D1B29AE70130D4
:1027A800C0B297E709B0F0BDB40100209001002045
:1027B8006D0100200C000020900000201A04002069
:1027C8007FEE36007F3F5C0210270000D801002012
:1027D800F2020020C027090088010020300A0020EA
:1027E800B8050020B8010020000A0020DC01002004
:1027F8001C04002030B50D000B4C85B0247803A9CB
:10280800E4010C70009313002A00FFF72BFC00284A
:1028180007D1064A064B126858711871DA60FFF73B
:102828009BFE05B030BDC046A4010020CC000020AE
:10283800E00100201FB50F4803F098FF10230E4A4F
:10284800116899430D4B11601B785B070ED50C4B33
:102858001A78002A0AD10B4B02A81B7803A9DB01BE
:102868000B70027013000092FFF7FCFBFFF774FE79
:1028780005B000BD1C040020DC010020FC0900207C
:1028880098010020A4010020F7B57E4E300003F027
:102898006DFF7D4C019620787C4D030700D4B6E08F
:1028A8002B685A0602D5412293432B600521002349
:1028B8000140994211D0764A5778022F03D0754FBC
:1028C8007F78022F09D101232F689F432F60724F11
:1028D8003F785771002717719760704F3A78002A30
:1028E8003AD1002B38D1420721D56A4A944612784A
:1028F800002A1CD166466A4A13707678002E16D1D3
:102908006848007E1070684A1360002924D00022AD
:10291800634B1A70654A136801331360644B1B7864
:10292800002B15D1604A13680133136010E00029A9
:1029380012D05C4B1A7E5A4B1B789A42E7D9830710
:10294800E5D40822237893432370FFF705FE03E0BC
:1029580001232A689A432A60237856489B071DD585
:102968004B4B4D491A79002A05D10A789446524AA8
:102978001278944512D9002202703A704C4A1278A3
:10298800002A05D1484A94466646126801323260E8
:102998000A785A7101232A689A432A600378002B1F
:1029A80035D0102229680A4031D10270424E3A4887
:1029B800367803789E4215D9082B13D80133DBB239
:1029C8000370DB0707D50121364B5956012901DD74
:1029D80001394AB25A700822237893432370FFF7CB
:1029E800BBFD14E007262F48828C324382840122E3
:1029F800914329600021264A397053712C4B11717B
:102A08001B788B4203D1284A1368013313600222D2
:102A18002B68134201D093432B602B68002B1CD1E9
:102A2800012523782B4207D0244B19481B681B68C3
:102A380098472378AB432370042523782B4207D08B
:102A48001E4B14481B689B6898472378AB43237038
:102A5800082223789343237007E0FA21019889001C
:102A680003F0C6FE019803F035FE022523782B42B9
:102A780007D0124B12481B685B6898472378AB4312
:102A88002370F7BDF4020020FC090020DC010020BF
:102A9800E0010020980100208C000020160400208E
:102AA800F1010020300A0020CC000020780400202A
:102AB800F0010020840400208D000020C0010020C7
:102AC80070010020F7B5032400286CD00368002BA0
:102AD80069D04368002B66D08368002B63D000243C
:102AE8000125324B324A1860324BFA261960324BB4
:102AF800B6001C70314B1C70314B1C60314B1C8074
:102B0800314B1C70314B1C60314B1C60314B1D70BC
:102B1800314B5A60FA22D200DA60304A9E601A615C
:102B28002F4A1D705A612F4A5C70DA615A19D4779E
:102B380007221D765C769A84FFF72AF82A4F2B49DC
:102B4800380003F0BFFD3100380003F051FE28497A
:102B5800284803F0B7FD2849284803F0B3FD284961
:102B6800284803F0AFFD2849284803F0ABFD284862
:102B7800284B294E0360294B8360294B0361294B5D
:102B88004360294BC3603368019398477369019385
:102B9800984703F071FE254B28001D70FFF7ECF9EC
:102BA800F36A019398472000FEBDC046C00100208B
:102BB800B80B0000C4010020FC090020A405002077
:102BC800DC010020B6010020B5050020B805002072
:102BD80090010020F2020020000A00208813000063
:102BE8007017000008E6D333F4020020912800088B
:102BF8003D2800081C040020D91D000830040020CE
:102C0800D51C000844040020891C0008BC050020CD
:102C18005C040020611E0008348F0008413400085D
:102C280011200008351D0008B51F00087C0400208D
:102C380000B503000322002850D00078013A172875
:102C48004CD803F0CDFF0C0E101416181A1C1E20B9
:102C580022282A2D303336393C3E41434547204A05
:102C680002E0204A00E0204A12781A7135E01F4A33
:102C780031E01F4A2FE01F4A2EE01F4A2CE01F4A6E
:102C8800F2E71F4AF0E71F4A26E01F4A04331C32C6
:102C980003CA03C321E01D4A1EE01B4A127EE4E773
:102CA800194A526818E0184A926815E0164AD2681C
:102CB80012E0154A12690FE0134A52690CE0144AEF
:102CC80000E0114A5278D0E70F4ACDE7114A02E0F6
:102CD800114A00E0114A12685A600022100000BD33
:102CE800A40500201A040020A40100205804002094
:102CF8008004002085040020A50500207C04002015
:102D0800B50500200C000020300A0020540A0020DD
:102D1800000A0020CC000020A8010020980500200F
:102D280037B503000320002B00D19DE04F4A02383D
:102D38001268024200D097E01878162800D987E078
:102D480003F04EFF0C1F2226292D343B3F864248B4
:102D580051595D6165696D737980830000241D791F
:102D6800434B1D70A54206D0022D73D1414B1C70F8
:102D7800FEF7ACFF6EE0404BDB6A019398472800F2
:102D880072E01A793D4B01E01A793D4B1A706AE0FE
:102D98005A683C4B01E05A683B4B1A6063E059683B
:102DA8000320002960D01022384819E05968032010
:102DB800002959D01022364812E01879FFF7DCF8BC
:102DC80051E01A79334BE1E7334A04331C3203CB21
:102DD80003C248E059680320002945D002222F4841
:102DE80003F05BFD3FE01B7903205A1E0E2A3BD8F7
:102DF800294A137637E05A68274B5A6033E05A68F5
:102E0800254B9A602FE05A68234BDA602BE05A680A
:102E1800214B1A6127E05A681F4B5A6123E01B793E
:102E28005BB2DAB2072A17D90AE01B795BB2DAB2C9
:102E3800072A13D904E01B795BB2DAB2052A10D944
:102E4800032011E05A68164BA7E75A68154BA4E708
:102E5800022009E0200007E0134A00E00E4A537000
:102E680001E00D4A137000203EBDC046DC01002081
:102E7800A405002016040020348F00081A0400203E
:102E8800A4010020580400208004002085040020AC
:102E9800A5050020B5050020300A0020540A0020AE
:102EA800CC000020A8010020000A0020F0B585B061
:102EB80002AE07000291726003200F2F6ED8384BC4
:102EC80002381B68034201D09B0667D53379012578
:102ED8001A075BB212171B11934203DBDD0F002A9E
:102EE80000DA01250021029C0091022F10D82D49FB
:102EF800F8004158091B481E8141C9B200912A496E
:102F0800497849B2914200DA0125042B00DC0125F9
:102F1800264B20001B6A0193984700281DD0002CDF
:102F28001BD0009B002B18D1214B224AE318934257
:102F380018D9214B214AE318934215D9204B214A2D
:102F4800E318934212D9204B204AE31893420FD931
:102F58001F4BE4181F4B9C420CD90620002D1DD195
:102F680002381BE0009B06E0012304E0022302E094
:102F7800032300E004230520002D0FD1094A9446BD
:102F88006146FA008918624411CE11C153710123B8
:102F9800BB402800104A918C0B43938405B0F0BDC8
:102FA800DC0100200C000020000A0020348F0008FB
:102FB800C02571CCC0C62D00FF5E43CCBF270900D9
:102FC800A0B038CC20A1070040022ECC90D003003E
:102FD800606E29CCE0930400300A00200D4B10B538
:102FE8001A6801231A4201D0920610D5C21E032383
:102FF8000C2A0CD800230849C20053508A18012112
:103008008140064C13715371A28C8A43A284180024
:1030180010BDC046DC0100200C000020300A002052
:10302800F0B505000C008BB004920593049B9C42FC
:1030380000D3F3E1285D631C0238DEB2062800D90C
:10304800ECE103F0D7FD07001300C500E1002501FE
:103058004601B1010022C74B5A70AA5D1A72E21CE0
:103068000234E4B2D6B22A5D5A72C9E10C220021B8
:1030780007A805F087FD0023BF4A9918888C07A97F
:10308800585202330C2BF8D10F21AB5D19401B09A4
:1030980002936B461B7A8C465BB20393B74B1B7843
:1030A800002B21D101230399D3568B4203D100234E
:1030B800D356634518D00F20B14AB24912780B781D
:1030C800821AD2B2013A93420BDAAF4A0C38D05482
:1030D800981C087000210133DBB2D1540122AB4B9C
:1030E8001A700534E6B28BE1E31CDBB2EA5CA31C80
:1030F800DBB2EB5C12021A43631D0434E4B2DEB2A5
:103108002B5D0F245F061C407F0F0194231E01D105
:1031180001330193002F02D10623002A23D0791E00
:10312800062304291FD9072F1DD000210133062F9C
:1031380009D1974CC800005900280FD001208840B9
:10314800024392B20AE0100001240841204205D04F
:103158008F4CC8000059002800D1062301311029DE
:10316800E5D107A90A80029A072A00D94AE16246EE
:10317800052A00DD49E1DA43520715D169467E4A3E
:10318800097B51706146117007A9088890844888A6
:10319800D08488881085C888508508899085498991
:1031A800D1856946097911760F24754975480978DA
:1031B8000278611AC9B201398A4200DB20E17249FA
:1031C8000C3C8C54941C0132D2B204708B5414E120
:1031D8000121AB5D6F4A0F2613700A009A406E4BAF
:1031E80068481A80664B02781B780234F31ADBB2FF
:1031F800E6B2934200D803E1531803700420624BEF
:103208009854624B1970FBE00F23AE5D3340019375
:10321800A31CDBB2EA5C631D7706DEB2E31C043450
:10322800DBB2E4B2E95C2B5D09021B0419430C0014
:10323800642314435C43594B20001B6A7F0F02939D
:103248009847431E9841019B0630072B00DDDFE0BD
:10325800052F00DDDFE0072806D16946464B0979CE
:103268005A1CD177DC615F760F24454A45491278AC
:103278000B78A21AD2B2013A934200DBC0E0424A6C
:103288000A3CD4549C1C0133DBB20C70D054B4E01B
:10329800434BFF201B68002B03D01B68002B00D07A
:1032A80098470F24364A374912780B78A21AD2B2B7
:1032B800023A934200DBA3E0334A093CD4545C1C35
:1032C800E4B21055D81C087069460233DBB2097D98
:1032D80092E0E31CDBB2E95C231DDBB2EB5C090284
:1032E8001B041943A31CDBB2EB5CA85D19436423E0
:1032F8005943A31D0534E4B22A5DDEB207AB1A7147
:103308002022284C27683A432260002908D143B27A
:10331800022B15DDFFF762FE0322002813D00FE011
:103328005A680791FFF7C2FD062809D803F058FC30
:103338000A08080804060800022204E0012202E044
:10334800002200E00322202321680E4899432160CF
:103358000F240B4903780978611AC9B201398B42E5
:103368004EDA0949083CCC549C1C0133DBB204708A
:10337800CA5442E098010020300A0020A40100202D
:1033880094050020F3020020C8010020F10200206B
:103398000C000020B401002088010020348F0008B0
:1033A800C4010020DC0100200F23A85D0234E4B230
:1033B800184000D1013005F06BFB0022184B04F0D7
:1033C80063FD03F0F3FD174EB06005F0A3FB002288
:1033D800134B03F009FE03F0E9FDF0600F20124BD8
:1033E80012491B780A78C31ADBB22600934207D920
:1033F800531C0B7008210E4B995401220D4B1A7067
:10340800340013E602229343B1E604229343B2E662
:10341800FD2318401CE7FB23184025E70BB0F0BD3F
:1034280000408F40300A002094050020F30200205D
:10343800C8010020F1020020F0B5DF4C95B0DBB2E6
:103448000B93E2816B462C22069100219B181B7876
:1034580005902374D94BDA481B7811916374D94BC2
:1034680001711B78E170A1706171A16021736173B2
:10347800A17461612170022B03D0D34BDB6A0793DF
:103488009847D24803F072F9059B1B785809013810
:103498000C93062800D944E103F0ACFB0700430174
:1034A800AD004301AD0043012E01C94B1B78002B31
:1034B80000D03AE1C74C069BC74D0598591E671CBA
:1034C80089B201303B002A6800F0AAFB30226B4623
:1034D8009B181B782A682370069B2000191F89B245
:1034E80011AB00F075FB069BE318DA1E1278110287
:1034F8009A1E127812040A43191F013B09781B7897
:103508000A431B061343119A934270D1B34B3900F7
:103518001A88B34B00932868B24B00F0A3FB637979
:10352800E0791A02A379B04D1B0413432279691C70
:103538001343AE4A1360227A637A120202431B04D1
:1035480013431A00A37A1B061343A94A1360E27AAD
:1035580053065B0F6B760F231A40CA77227B134002
:1035680000D10123AB60A86805F0D4FA0022A14B72
:1035780004F08AFC03F01AFDA86005F0CBFA9D4B15
:10358800002203F031FD03F011FD069BE860112BCA
:1035980023DD5023984E12AF32683B71303B134302
:1035A800336003230D3405936178A37809021B0463
:1035B800194323787A681943642359430598396075
:1035C800FFF774FC059B03340133DBB20593082B2A
:1035D800EAD1326818339A4332600022874B5A7016
:1035E8007B4B01321A70864B5B786B709DE005222D
:1035F800824B5A7099E0059B581C597843781B02F6
:103608000B431A0083781B041343C27812061A432B
:10361800774B07921B689A4212D07A4B1E68002E8D
:1036280000D19AE0079B3268934207D1331D0A9371
:1036380010330D930123776A09930AE0B66AEEE71F
:10364800714B00261F6800230993654B0D93654B4A
:103658000A93059B069A5B790893059B9B18DA1ECB
:10366800127811029A1E127812040A43191F013B9C
:1036780009781B780A431B0613430F93059BDD79D2
:103688009B792D021D43ED1BADB22BB2002B19DB2C
:10369800EC190127089B0A9A1807030F0E93069B3B
:1036A8000598191F11AB89B202930194079B0097E3
:1036B80000F0CCF90F9911983F4B544A814200D041
:1036C80031E151E080225202BC181C1911AB02935F
:1036D8000123069900930439079B0A9A89B2019439
:1036E800059800F0B3F90F9B119A93423AD107223B
:1036F800314B5A705C6132E0364D0599069A0131BA
:10370800280003F0CAF80323237000230699637086
:103718000139A560217302213D4A13780B431370C8
:1037280003E001236370FEF723FB244B1B78002B77
:1037380005D1244B1B78022B01D1FEF7C7FA0821CB
:10374800334A344C137820000B430739137003F0C5
:103758004FF8200002F0BEFFEBE008236370FEF78D
:1037680007FBE6E03C00C2E79542C0D86946242042
:103778000022091809785A70997008999A60C90640
:10378800C90F59710E491A734A7023495C610A605E
:1037980022490A700999012942D102321A70736AC2
:1037A8009C4204D1002C02D00622034BBFE0002328
:1037B8007462099350E0C046700100209401002013
:1037C800E0010020A4050020348F000844040020F4
:1037D8001A040020170300208C0100207E0400201A
:1037E800A505002085040020300A00205804002088
:1037F8008004002000408F40DC0100209801002058
:10380800000A002098050020A8010020FF3F0000C2
:10381800FC090020F4020020780400209405002010
:103828001F210C9D44488D434449A02D09D11F7088
:103838000B6807709C420BD123005A1E9341DBB2E0
:1038480007E01A700B6802709C4201D1002CABD1C2
:1038580000230993394B1C602023089A1340384AE7
:1038680004D001231371374A937406E01371364B61
:103878001A78364B1B789A4202D9354802F076FFFF
:103888000E9A069B0832043B9B1A002B3EDD0E9EC7
:10389800059B069909369B5C8D1B2A4F043DEDB2AA
:1038A800FB70002B16D10F27089B3B401F1E00D032
:1038B8003BE7059BA9B298190123264E00930A9A63
:1038C800079B0296019400F075F90B9B2A003900BA
:1038D800300021E0089B1B0704D00B9B08210598AA
:1038E800FFF79EFB01940124059BA9B29819194E74
:1038F800079B029600940D9A00F05CF9099B002B37
:1039080000D012E7BE603D737C7304E7089B1F0775
:1039180004D008210B9B0598FFF782FB099B002B1D
:1039280000D1F8E601E7954200D9E0E609225A708D
:1039380015E715B0F0BDC046AC010020A801002075
:10394800E0010020700100208C0000208D00002084
:10395800BC05002017030020F0B5040085B000283E
:1039680001D1032559E02E4B01251968112319406F
:10397800019152D16B462B4F1B7903AE10223800B0
:10398800337002F09FFF23787D70AB4217D0002B75
:103998000ED0032B25D120220A20234B52421D7022
:1039A80033782056134333706268238901991AE0EB
:1039B8001D4B32781D701F231340402209E01B4A1B
:1039C8001370E27B184B1A701F2332781340802241
:1039D80052420E20134333702179A268A3892056DE
:1039E80001E0022519E0124D2D78002D04D1C5B251
:1039F800072DB6D80F4D68703000FEF7FBFE002883
:103A080007D1012123780C4A3B7013780B431370BC
:103A180002E00022094B1A700500280005B0F0BD2D
:103A2800DC010020E00100208D0000208C00002037
:103A3800A4010020300A0020FC0900201604002000
:103A4800014B18707047C046F2020020F7B50E000F
:103A58000700019208AA1C4C1178099A6171190A89
:103A68001A4DA371E171190C1B0E6372130A280019
:103A7800A272E372130C120E23736273E67321723F
:103A880000F08EFC2800019900F09AFC2800210023
:103A9800102200F09CFCF2B23900280000F097FCDC
:103AA8000B4C2900200000F0F0FC62782078A37805
:103AB800120202431B0413431A00E3781B06134344
:103AC8000A9A1360F7BDC046D0000020D005002038
:103AD800E9070020F0B585B01D00334F0AAB1B780D
:103AE80002900E0001920021F02238000B9C0393F3
:103AF80002F0E8FE3A001021019800F083F96A46C6
:103B08002A4B127B9D715A712A0ADA712A0C1A7291
:103B1800220A2D0E9C72DA72220C240E5D725C73DE
:103B2800350001241A7323000F331B01DBB2019304
:103B38000F2D19D91E4F1D481B4A3900C47300F0B8
:103B4800E7F900230C9A019901985118029A121862
:103B5800D05CDA5D4240CA540133102BF2D1103DDB
:103B68000134ADB2E4B2DEE733091C01341B1F0196
:103B7800A4B2FFB20133002C13D00D4D0B480A4AF2
:103B88002900C37300F0C4F900230C9AD119029AD2
:103B9800D219D05CEA5C4240CA5401339AB29442CA
:103BA800F3D805B0F0BDC046F8060020E0000020BC
:103BB800E806002030B585B00A9D08AC2478029547
:103BC800099D00940195FFF785FF05B030BD000001
:103BD800F7B507000D00104C1E002000019200F000
:103BE800DFFB0199200000F0EBFBEAB2390020006E
:103BF80000F0EDFB094D2100280000F046FC6A7832
:103C08002878AB78120202431B0413431A00EB789E
:103C18001B0613433360F7BDD0050020E9070020D9
:103C2800F7B51D0004000E4E0F0001920021F0228E
:103C3800300002F047FE32001021019800F0E2F84F
:103C480032002900200000F063F90F2F06D929005F
:103C5800200010311030320000F05AF9F7BDC0468C
:103C6800F8060020F0B587B000936B460400224D9B
:103C7800DA800F002800F02200219E1D02F022FEAB
:103C88002A001021200002AC00F0BCF8200010220D
:103C9800002102F017FE0123237008336B4439001A
:103CA8001800062202F0F9FD0F236B4418003100BA
:103CB800022202F0F2FD2A000099200000F028F903
:103CC80020001022002102F0FDFD022323700923A9
:103CD8006B4439001800062202F0DFFD0F236B4405
:103CE80018003100022202F0D8FD2A000C992000A9
:103CF80000F00EF907B0F0BDF80600200B78027846
:103D0800534003704B784278534043708B788278E5
:103D180053408370CB78C2785340C3700B790279D3
:103D2800534003714B794279534043718B798279BF
:103D380053408371CB79C2795340C371027A0B7AAD
:103D480053400372427A4B7A53404372827A8B7A99
:103D580053408372CB7AC27A5340C3720B7B027B87
:103D6800534003734B7B427B53404373827B8B7B73
:103D780053408373C27BCB7B5340C373704710B5EA
:103D880013780C78634003704C7853786340437021
:103D98008C78937863408370CC78D3786340C37011
:103DA8000C791379634003714C79537963404371FB
:103DB8008C79937963408371CC79D3796340C371EB
:103DC8000C7A137A634003724C7A537A63404372D5
:103DD8008C7A937A63408372CC7AD37A6340C372C5
:103DE8000C7B137B634003734C7B537B63404373AF
:103DF8008C7B937B63408373C97BD37B4B40C373BA
:103E080010BD00000B00F0B5103BDBB287B00E0010
:103E18001500102B05D801229A4013003A4A134284
:103E280004D10023F0352B70FF206AE00023C25C28
:103E3800EA5401339E42FAD133002A001C339B0016
:103E4800DBB205931B09013BF032137001233400E8
:103E580004932B191A1F1778DA1E12783100019271
:103E68009A1E013B12781B7820000292039302F0FD
:103E780051FFC9B200291AD1019A244B02999B5CBF
:103E8800049A5340214A525C039901921F4A525C9A
:103E98001B2102921D4AD25D1F000392049AD20987
:103EA8004A43049949004A40D2B2049210E0182EBD
:103EB8000ED910290CD1019A144BDF5D9B5C029A34
:103EC8000193124B9B5C039A0293104B9B5C0393E8
:103ED800A31BDBB2EA5CEB1857402F5559780198C1
:103EE8002A194840507099780298043448409070D4
:103EF800DB780399E4B25940059BD170A342A8D856
:103F0800002007B0F0BDC04601010100DE8C0008AA
:103F18001300F0B597B0F033119117001A78FF230A
:103F2800002A00D131E101003A0012A8FFF727FF6B
:103F3800012300933B00F0331B78009A934200D88A
:103F4800E7E012AB5B789249049312AB9B78059338
:103F580012ABDB78069312AB1B79079312AB9B79F4
:103F6800089312ABDB79099312AB1B7A0A9312AB55
:103F78005B7A0B9312ABDB7A0C9312AB1B7B0D9322
:103F880012AB5B7B0E9312AB9B7B0F9312AB1B7830
:103F9800019312AB5B79029312AB9E7A8B5D1093FF
:103FA80012ABDB7B0198CC5C03937A4B7A4A185CA2
:103FB800844665460298105C6840109D68406040E1
:103FC80012AD28700198029D085C5D5D44406C400C
:103FD800955D9E5D6C4012AD6C70029C039D0C5DFE
:103FE80060407040565D12AD7040A8701098444013
:103FF8000198105C44400398185C44400F98EC709A
:104008000D5C06980C5C07981E5C0B98105C704061
:104018006840604012AE307107980B9E085C9E5D48
:10402800444074400F9E965D744012AE74710B9CB0
:104038000F9E0C5D9E5D60407040069E6540965DDB
:10404800704012AEB0710798145C069865401C5C0D
:1040580005986540F5710D5C09980C5C0A981E5C22
:104068000E98105C70406840604012AE30720A983A
:104078000E9E085C9E5D44407440059E965D7440AB
:1040880012AE74720E9C059E0C5D9E5D6040704081
:10409800099E6540965D704012AEB0720A98145C35
:1040A800099865401C5C08986540F5720D5C0C9891
:1040B8000C5C0D981E5C0498105C70406840604071
:1040C80012AE30730D98085C049E44409E5D7440A7
:1040D800089E965D744012AE7473049C095D089C3A
:1040E80048401C5D4D4060400D990C9C515C145D2E
:1040F8000C9A4D409B5C60405D40009BB073190179
:10410800F57379183000FFF7F9FD009B5A1CD3B2FC
:104118000FE712AA1E4B127812A99A5C12A80A700D
:104128000A799A5C0A710A7A9A5C0A720A7B9A5C22
:104138000A734A7849799A5C595C4170417A595CAA
:104148004171417B4273595C82784172817A9A5CF1
:10415800595C827281708279817B9A5C595C827326
:104168008171C17AC27B595CC173C179595CC172D2
:10417800C178595C9B5CC171C370009B01001A0136
:10418800BA181198FFF7FBFD0023180017B0F0BD0F
:10419800DE8C0008DE8D0008DE8B00080122014B52
:1041A8001A707047F907002010B5034800F076FE32
:1041B80001F000F810BDC046700B0020044B1868D1
:1041C800044B1B685840044B1B6858407047C04656
:1041D8005000F81F5400F81F6400F81F0A480B4BE2
:1041E80010B5036070230361C0239B00C3600023E4
:1041F8008361436183604360C361FCF74DF8002825
:1042080000D0FEE710BDC046CC0A00201C000140CB
:10421800F0B58027554B9FB01D780393544C7F050C
:10422800544E002D4BD1FBF7E7FFA36B524A1F43B7
:10423800A76333688024134080221201134333603C
:1042480005231193FB331393FE3B1A9380231B031F
:104258001C93802364021B0411A81D9312941B94C1
:10426800FCF72CFB0F230121059305A80C3B0693B3
:10427800079508950995FCF74BFD20230AA80A9392
:104288000F94FCF701FEFCF7F9FDFA21890002F012
:10429800BBFCFCF733F90420FCF74AF901202A009B
:1042A80029004042FCF7F0F800F044FCFBF7DCFF83
:1042B800FBF7E2FFFBF7E8FFFFF790FF28E0A36BAF
:1042C8002D4A1F43A763336813408022120113430A
:1042D80080223360236852021343236080239B02A9
:1042E8002168234A1942FBD08021136849040B43F3
:1042F800136080239B0421681D4A1942FBD00321C7
:10430800D3680B43D3600C22E36813400C2BFBD11A
:1043180004230622072119480093013300F012FEF6
:1043280000F01CFF164800F03BFF039B1B78002B96
:104338001AD1039A01331370124B1A781C00002A01
:1043480012D1114D1149280002F0BCF9FA212800B8
:10435800890002F04DFA280002F0BCF92378002BFE
:1043680002D102F055FAF9E71FB0F0BDFA070020B4
:104378000010024000700040FFE7FFFF700B0020B4
:10438800F0000020F9070020FC070020A5410008E4
:1043980010B5FBF741FFFCF7DAF810BD01207047B4
:1043A80010B504001022F130002102F08BFA23002E
:1043B8000021FC339961F022200002F083FA10BD3D
:1043C80010B5020008001021FFF71CFD10BDF0B564
:1043D8000600FC360500B06987B00091140000287B
:1043E80044D010273F1A974200D91700AB1CFF335F
:1043F8001818BAB20099019302F04FFAB369FB1882
:10440800B3610F2B3FD9BC423DD02B00F1331800CC
:1044180019781A7C4A401A70019A01339A42F7D1E6
:104428002A000100FFF774FD009BE41BDB190093D1
:104438001CE01F78117801327940197001339842D5
:10444800F7D12F00F1371022390002A802F025FA1F
:1044580002A92A000800FFF75BFD102202A9380014
:1044680002F01BFA009B103C10330093A81CFF308D
:10447800102C03D92B00009AF133DAE7A2B2009985
:1044880002F00BFAB46107B0F0BD70B50C0088B04B
:10449800102200210500684602F014FA220069463D
:1044A8006846FFF735FD6B461A7800237F2A12D934
:1044B8006A46D25C013351006A46D25C581ED20962
:1044C8000A4369460A540F2BF2D17922CB7B524218
:1044D8005B0053400EE06A46D25C013351006A46E5
:1044E800D25C581ED2090A4369460A540F2BF2D1EE
:1044F800CB7B5B006A46D3732300FC339969102990
:1045080011D10023A21CFF3269461078C95C01331F
:10451800414011700132102BF6D12300A01CF13359
:10452800FF30190046E0127800237F2A12D91A00BA
:104538006B469B5C013258006B469B5C561EDB0940
:104548000343684683550F2AF2D1C37B883A5B0040
:1045580053400EE06A46D25C013350006A46D25C92
:104568005E1ED2090243684682550F2BF2D1C37BE7
:104578005B006A46D3736318802221000020FF3352
:104588009A70FC318B695A1C0F2A05D80333FF3304
:10459800E31818701300F6E700238A61A21CFF32A3
:1045A80069461078C95C0133414011700132102B03
:1045B800F6D1B2E71E781A7C72401A70013398421D
:1045C800F8D104A8102202F068F92200290004A8F2
:1045D800FFF79EFC10220021684602F073F908B02C
:1045E80070BD10B5FBF726FE10BD0000F0B5050044
:1045F80087B014001E1E5DD043880193012901D1A4
:104608002D4B04E0022901D12C4B00E02C4B0293E6
:104618000027022301A9686803970493FBF79CFF0E
:104628003900032C01D8274B195D80226B88520072
:1046380093422FD00FD80724102B2ED004D8042B48
:1046480026D0082B24D027E0402B23D0802B21D044
:10465800202B21D11EE08022520193421AD00AD881
:104668008022D200934215D080221201934211D0A9
:104678008022920009E08022D20193420AD080224F
:104688001202934206D080229201934204D101E0A3
:10469800062402E0072400E005240F232A782000DE
:1046A8001340094A9B009E500022FBF7EDFE2000B4
:1046B800FBF71AFF07B0F0BD000011100000211031
:1046C80000003110DE8E0008100800200023C356B9
:1046D80010B5013304D0CAB241884068FCF76EF8BF
:1046E80010BD0000F0B58BB0150010AA04001778B3
:1046F8004A1C6BD0017001200F2206000A40964028
:10470800F02266801140324A0AD1A021C9056160B1
:10471800D16A0143D162D26A10400090009A30E019
:1047280010290AD12B49D06A616002210843D0625E
:10473800D26A11400191019A23E020290AD1264921
:10474800D06A616004210843D062D26A11400291A4
:10475800029A16E030290AD12049D06A61600821FE
:104768000843D062D26A11400391039A09E01C49B8
:10477800D06A616080210843D062D26A11400491F6
:10478800049A0222059607970892002D01D0032D5E
:1047980001D1069510E0022D08D1012B02D1113369
:1047A800069300E00695119B099305E0012B01D1C2
:1047B800103300E00123069305A96068FBF7CCFEDF
:1047C800012D03D111992000FFF780FF0BB0F0BD38
:1047D800001002400004005000080050000C005077
:1047E800001C00500378DB0902D00122024B1A702A
:1047F8000122024B1A707047540800205508002007
:1048080010B5034801F0B2FF0122024B1A7010BD27
:10481800A00800200901002010B5094B09491A78A1
:104828000320FDF7C5F8032803D005384342584153
:1048380005E0002211001000FDF7BAF8002010BDB5
:10484800F800002056080020F0B591B0FFF7E0FC12
:10485800574B58480360FDF75BF80022564C574BFE
:1048680025681A700193954208D1FFF7A7FC02F05A
:1048780003F85349280002F005F820600126514A40
:104888002168514B0020FDF76DF8504D019B504CAD
:10489800504928001E70267001F014FF3000FDF703
:1048A80057F83000FDF7AAF83000FFF7C9F84A4B6F
:1048B80002AA1E0003CE03C2032002995A68FEF71B
:1048C800F5FA04AB1A0003CE03C204200499059A32
:1048D800FEF7ECFA06AB1A0003CE03C205200699D0
:1048E800079AFEF7E3FA08AB1A0003CE03C20620C4
:1048F8000899099AFEF7DAFA0AAB1A0003CE03C23E
:1049080007200A990B9AFEF7D1FA0CAB1A0003CECE
:1049180003C208200C990D9AFEF7C8FA0EAB1A00CC
:1049280003CE03C209200E990F9AFEF7BFFA00269C
:104938002A4F3800FBF7A2FD0028F9D1019B1B780C
:10494800002B00D1FEE7264B1A78002A25D01870D4
:10495800244B1B78002B13D001232370002E1ED16B
:10496800002638002670FBF789FD421E90411E4B39
:104978001E709E70DE705870FFF74EFF060014E040
:10498800FA211A48890001F07DFF194BC118280047
:1049980001F02EFF280001F09DFE002E02D0FFF747
:1049A8003BFF06002378002BDAD101F031FFBFE787
:1049B800ED470008980800205008002054080020FF
:1049C800FFFFFF01F90000200A010020A0080020D5
:1049D8000901002009480008E48E0008CC0A0020DC
:1049E80055080020F00A00205608002018FCFFFF98
:1049F80088130000F0B502008FB0002811D107AD70
:104A080009A94548FCF79EFDAB7A6C7904936B7A4B
:104A180003932B7A02932B790193EB7800932B88DD
:104A28000BE0C178827A0091017903880191017ABB
:104A380044790291417A04920391002500260027C7
:104A4800E3180593059B9D4211DA0022002D02D040
:104A580003231D4201D1314B00E0314B30003900B6
:104A680002F0C2FA013506000F002DB2EAE7002C69
:104A780009D0032423401C1E05D0009B0024013BC1
:104A88000093284D16E0009B274D013B0093009BA7
:104A98009C4222DA254B285D0134584304F03AF849
:104AA80002000B003000390002F09EFAE4B2060062
:104AB8000F00ECE7009B9C420FDA1C4B285D013489
:104AC800584304F027F802000B003000390002F0C8
:104AD8008BFAE4B206000F00ECE7E120029B00012C
:104AE80058433C23039A5343C018049B0F4AC318E6
:104AF80001985043181804F00DF832003B0002F0FA
:104B080073FA00220A4B03F0BFF902F015F802F01D
:104B18004DFA0FB0F0BDC046B408002050287E41C1
:104B280038137E411C8F0008288F0008805101002F
:104B38000040DF3FF0B51A4B89B01C78002C2CD10F
:104B48008021184AC902136D174D0B431365174B83
:104B580028002B6003236C60AB60EB602C61AC61B8
:104B6800EC61FCF7D9FA062301AEB3706B46012756
:104B7800991D220028007471F7703771FCF7A0FBAB
:104B8800220003A9280034727472B472F47274613A
:104B9800B461FCF717FB024B1F7009B0F0BDC046AB
:104BA800E008002000100240B4080020002800405F
:104BB8008021F0B5794E9BB0490005003000FCF724
:104BC80015FA3000FCF7E8FC3000002212A9FCF7C7
:104BD800B9FC10AC09AB2200190051CA51C151CA25
:104BE80051C16F48146802000C601900C1C9C1C2E4
:104BF800C1C9C1C21460DA78280004925A790192B6
:104C08009A7A5F7A05921C791A7A664B00929D42CD
:104C180001D9180002E0002D00D1013003F07AFF1D
:104C2800614A624B03F030F90290039101F084FF6E
:104C38005F4B050018680E0003F02AFF029A039BD9
:104C4800069007912800310003F098FB0022594B89
:104C580003F01AF90B0002000698079902F0C4F94C
:104C680003F0E0FEE823FF33984202DC504B186063
:104C78000BE04F4BE938FF3818603100280000225C
:104C88004D4B02F0B1F905000E0000224B4B2800F5
:104C9800310002F063F900280AD028003100002210
:104CA800464B03F06BFB013405000E00A4B2ECE7A1
:104CB8000022434B2800310002F050F900280CD0A4
:104CC8003F4B28003100002203F058FB009B0500F1
:104CD80001339BB20E000093EAE70022394B28000B
:104CE800310002F03BF900280AD0364B2800310089
:104CF800002203F043FB7B1C05000E009FB2ECE78B
:104D0800059803F0C5FE2A00330002F06DF902F0A1
:104D18004DF985B23B2D04D93C3D7B1CADB29FB209
:104D2800F8E73B2F07D93B003C3B9FB2009B013380
:104D38009BB20093F5E7009B172B06D9009B013423
:104D4800183B9BB20093A4B2F5E7019B002B01D05E
:104D58009B0701D11C4B00E01C4B049A9B18013B9C
:104D680019788C4203D9200002F0BEF88CB2802357
:104D780010A95B004B626B461B7800220B70212345
:104D880008A81B180548CA614A61CA708D704F701F
:104D9800DC77FCF705FB1BB0F0BDC046B40800206B
:104DA800000B002042061200FCA9F1D24D6200401F
:104DB800DC08002000408F400000F03F0018F5405C
:104DC8000020AC4000004E40288F00081C8F0008CF
:104DD8000C4B1A68824207D20B4A1178002903D07B
:104DE800002111701A68801A1A68904209D9074A76
:104DF800312802D80023137003E001211B681170C9
:104E0800C01A7047E4080020D9080020E8080020EC
:104E180010B50020FFF7EEFD10BD000010B5002012
:104E2800FFF7E8FD04000448FFF7E4FD231A844275
:104E3800A4416442181B10BD000B002010B50400EB
:104E48000020844206D0FFF7D5FD031BA042804115
:104E58004042181A10BD00000D4B10B51B78002BEE
:104E680014D10C4B1B78002B10D0FFF79DF9FBF7E2
:104E7800ABFC0421084A13680B431360FBF7D2FC10
:104E8800FBF7C6FC01210800FBF7A6FC10BDC046D5
:104E9800D8080020E80800200070004037B5050059
:104EA800FCF7F6FB28000024002158304156230067
:104EB800019400940122FFF715FC28000223002129
:104EC800643041560122009301942300FFF70AFC45
:104ED80028000021703041562300019400940122DB
:104EE800FFF700FC2800012200217C3041562300F6
:104EF80001920092FFF7F6FB37BD0000104B10B58A
:104F08000400186801F080FE03005A1E9341C01A7D
:104F1800430803439A0813431A0913431A0A13430D
:104F28001A0C1343581C984302F022F82023181A2D
:104F3800C0B20138072800D90720C000E06110BDC1
:104F480008000020F0B500278025040085B00393F1
:104F58000AABDF572C4B02925A6A6D012A435A62F8
:104F6800586A2A4A0226104058625A6B20002A437F
:104F780000255A63264B5830236032002B000195D8
:104F88000096FFF7AFFB20002B0064303200029937
:104F980001950096FFF7A6FB20002B0070300195C5
:104FA800009632000399FFF79DFB7B1C14D0012368
:104FB8002000009301952B00320039007C30FFF768
:104FC80091FB0723A560E56025616561256265623F
:104FD800A562E36265600EE080239B00A361FA3B53
:104FE800FF3BE362FD33A560E560256165612562ED
:104FF8006562A562636007492000FFF77FFF200014
:10500800FCF706FB05B0F0BD00100240FFEFFFFF04
:105018000030014080969800036898680840411E57
:105028008841C0B2704770B50D0040210400026885
:1050380013680B43136002212000FFF7EDFF0028DF
:10504800F9D02368EDB2DD6001212000FFF7E4FF0D
:105058000028F9D02368D868C0B270BD01210E4B72
:1050680010B55A6B05200A4380215A639A6B49058B
:105078000A439A63002240421100FBF705FA002216
:10508800022011004042FBF7FFF900220120110025
:105098004042FBF7F9F910BD001002407FB5084BFC
:1050A80002689A420AD10223A02001930133029395
:1050B800002301A9C0050393FBF74EFA07B000BD12
:1050C80018000140054B02689A4205D18021044A24
:1050D800C902136D0B4313657047C0460028004092
:1050E800001002407FB50D4B02689A4213D180210F
:1050F8000B4A4901536BA0200B435363F0230193E0
:10510800EE3B02930322002301A9C00503930492F6
:105118000593FBF721FA07B000BDC04600300140F7
:1051280000100240074B026810B59A4209D1A0202E
:10513800054A064B516BC0050B405363F021FBF742
:10514800C1FA10BD0030014000100240FFEFFFFF20
:105158007047FEE7704770470120704737B5012553
:1051680000242A0001950095002304210948FFF72F
:10517800B9FA009523002200210001940648FFF7A0
:10518800B1FA009529000194230022000348FFF793
:10519800A9FA37BDEC0B0020280B0020640B002077
:1051A80010B50368032201210148FFF71FFA10BD5B
:1051B800280B002037B5012500242A000195009509
:1051C800002304210948FFF78DFA2300220021005B
:1051D800019400940648FFF785FA29000194009489
:1051E800230022000348FFF77DFA37BDEC0B0020AF
:1051F800280B0020640B002080207047024B1A788F
:10520800824200D018707047E9080020002210B5CB
:105218000749D3005C58844203D8CB189C68A04245
:1052280003D30132152AF4D1FEE7187910BDC04620
:10523800D48F0008064B1A00DD321278002A05D1F7
:10524800FF335A79002A01D101325A717047C0469A
:105258001C0B0020014BDC33187870471C0B002016
:1052680073B5012500240C4E2A0023003000019557
:105278000F210094FFF736FA2800FFF7B2F9300043
:105288000195230022000F210094FFF72BFA062036
:10529800FFF7A7F973BDC0461C0B0020F8B50E4DEB
:1052A80006000C00280000211700FFF70FFA8021E4
:1052B80031430A4EE7193000FFF7B5FEBC4205D06E
:1052C80021783000FFF7AFFE0134F7E7280001210D
:1052D800FFF7FCF9F8BDC046EC0B0020700B00206E
:1052E80007B56B46D971073301221900FFF7D6FFBE
:1052F80007BD00000D4B10B5E033186003F00AFC41
:1053080000220B4B02F09CF901F050FE0400010C46
:10531800C9B20620FFF7E4FF210AC9B20720FFF748
:10532800DFFFE1B20820FFF7DBFF10BD1C0B0020F8
:1053380080844E40F8B50E4D06000C002800002170
:105348001700FFF7C3F97F2131400A4EE7193000F3
:10535800FFF769FEBC4206D000213000FFF763FE6C
:1053680020700134F6E728000121FFF7AFF9F8BDF6
:10537800EC0B0020700B002013B56B46DC1D0122DE
:105388002100FFF7D7FF207816BD0000F0B50D000B
:1053980087B0002802D001285BD0E8E0754C2720B0
:1053A8002300F8331E88FFF7E7FFF82398430130FE
:1053B800801903F06DFB0B002100FA310978020017
:1053C8000020002901D16C4900E0002101F00CFE09
:1053D800060030200F00FFF7CFFFF923984302D1D2
:1053E8000020002101E00020634932003B0001F069
:1053F800FBFD060028000F0003F04AFB02000B002B
:105408003000390001F0F0FD0B002100FC31097873
:1054180002000020002901D1002101E08021C905F6
:1054280001F0E2FD0022554B02F02EFDF434060097
:1054380020680F0003F06EFB02000B0030003900FB
:1054480002F0FEF800224E4B02F01EFD01F074FB44
:105458008AE0484C2300FC33DB69022B05D8494A13
:10546800DB00D3181E685F6801E0002600272300D0
:105478000120FC331B6AED009840019303F008FB00
:1054880002000B003000390002F0DAF802000B00CD
:105498000020394902F0D4F8230002900391FE332A
:1054A800988C03F0F5FA0022374B01F09DFD029A23
:1054B800039B02F0E9FC9222019B049005919E0057
:1054C80093235200A25C1421501E82415B00E35CCE
:1054D80052421B019B1B1C331140ED18681A03F044
:1054E80019FB9023234F5B000400F85C0D00431E5A
:1054F80098414000301A03F00DFB02000B00200019
:10550800290002F09DF801F0E9F9222304000D00BA
:10551800FF33F85C043003F0BBFA22002B0002F0E2
:10552800B3FC0022002304000D0001F00DFD00284B
:1055380006D00022114B2000290001F055FD01E0A2
:1055480000200E49029A039B02F09EFC049A059BD8
:1055580001F04AFD00220A4B02F096FC0B4A0C4B64
:1055680001F042FD01F050FA01F020FD00E00020BA
:1055780007B0F0BD1C0B00200000F03F00002040E9
:1055880000408F40888F0008000011402B8716D9F3
:10559800CEF7EF3F10B5002806D001280CD11B200C
:1055A800FFF7EAFE8B3805E01120FFF7E5FE40081B
:1055B800C0B2404200B201E00120404210BD10B527
:1055C80004000120002C00D00020FFF717FE012066
:1055D800FFF7D2FE0723010099430C43E1B20120F3
:1055E800FFF77EFE10BD000010B5074801F0BEF8B9
:1055F800064801F0BBF80020FFF7E1FF0022044B4A
:10560800DC331A7010BDC0467C0C0020540C0020FE
:105618001C0B002010B5074801F0A8F8064801F057
:10562800A5F80120FFF7CBFF0022044BDC331A70EA
:1056380010BDC0467C0C0020540C00201C0B002020
:10564800F7B56E4C01902300DD331D78002D02D094
:10565800012D28D06BE06A4B40201E78FFF78CFEA6
:1056680003230C21184001434020FFF739FE412055
:10567800FFF782FE3F2149420843C1B24120FFF7AC
:105688002FFE3520FFF778FE27003F23FF3718400D
:10569800F8741E210D20FFF723FE594B7D71BD7153
:1056A8005D821D8244E02A23FF33E35C41263320D8
:1056B800002B08D0FFF760FE0643F1B23320FFF756
:1056C8000FFE192109E0FFF757FE0100B1430D4312
:1056D800E9B23320FFF704FE1D213B20FFF700FE4F
:1056E80095235B00E65C2823FF33E35C002B08D09E
:1056F8001D211120FFF7F4FD4020FFF73DFE332365
:1057080007E01F211120FFF7EBFD4020FFF734FED3
:105718003F23010040201940FFF7E2FD00210F2040
:10572800FFF7DEFD00210D20FFF7DAFD00E000267F
:10573800802200215200334803F024FA230001227A
:10574800DC331A70019B002B07D02F4D190028005D
:1057580001F04EF8280000F0BDFF2300DD331B7870
:10576800002B43D10520FFF72AFF002E44D1230048
:10577800F833188803F08CF9060027200F00FFF78C
:10578800FBFDF823984303F083F900221F4B01F037
:105798002BFC32003B0001F027FC00221C4B01F0DF
:1057A80023FC00221B4B02F06FFBF4340600206838
:1057B8000F0003F0AFF902000B003000390001F0D0
:1057C8003FFF0022144B02F05FFB01F087F8002234
:1057D800124B01F009FC01F0E9FB114C010020001B
:1057E80001F006F8200000F075FF05E00520002E06
:1057F80000D10620FFF7E3FEF7BDC0461C0B0020D2
:105808001A0C0020F00800207C0C00200000F03F5B
:10581800000024400000204000408F40000010405D
:10582800680C002070B5284D0100280000F0E0FF4A
:10583800264C2300DD331B78002B02D0012B1CD013
:1058480037E04020FFF798FD03231021184001435B
:105858004020FFF745FD4120FFF78EFD3E23010064
:1058680041201940FFF73CFD3520FFF785FD3F2318
:1058780018402300FF33D8741BE02823FF33E35C70
:10588800002B08D0F5211120FFF72AFD4020FFF753
:1058980073FD332307E0F7211120FFF721FD402096
:1058A800FFF76AFD3F230100402019400143FFF73D
:1058B80017FD02232800DC34237000F00BFF0320BF
:1058C800FFF77DFE70BDC046540C00201C0B002065
:1058D80010B50D4C2300DD331B78012B12D1FA21B2
:1058E8001120FFF7FDFC4020FFF746FD3F23010094
:1058F80040201940FFF7F4FC0323DC340720237011
:10590800FFF75DFE10BDC0461C0B002010B5184BFC
:105918000400DD331A78824228D018700020012C48
:1059280010D0FFF74CFE0120FFF726FD7F23010072
:1059380001201940FFF7D4FC00214020FFF7D0FCDC
:10594800302110E0FFF73BFE2000FFF715FD802116
:1059580049420843C1B22000FFF7C2FC00214020A1
:10596800FFF7BEFC00214120FFF7BAFC10BDC0467E
:105978001C0B002070B5174B174C186021001748F6
:1059880000F0A0FE2100164800F09CFE21001548FA
:1059980000F098FEFFF764FC0020FFF710FE1248A5
:1059A800FFF7FEFB114B5C1C34331D00631E187897
:1059B800FFF7ACFF617820780334FFF791FCAC4225
:1059C800F4D10020FFF7A2FF0022094BDC331A7044
:1059D80070BDC046EC08002015600008540C00207B
:1059E8007C0C0020680C00201C010020A08F0008FF
:1059F8001C0B002070B50E0004001500FFF786FF91
:105A08003000FFF777FC0520FFF7D9FD0120FEF7EE
:105A1800E8FD2000FFF7BEFD0400FFF7E5FDEB17EA
:105A2800E00FA5425841C0B270BD70B500240120F6
:105A3800FFF76CFFFF211120FFF752FC0520FFF74D
:105A4800BEFD250001260120FEF7CBFD2C20FFF727
:105A580093FC3040A04001340543202CF3D1FFF7DC
:105A6800C3FD280070BD0000F0B58BB0049310ABE7
:105A780080CB15001B880AAA009312AB1B8806006E
:105A8800059313AB1B780C00019314AB1B7802939E
:105A980015AB1B78039316AB1B78089317AB1B78D1
:105AA800099319239B18DB7F06931D239B18DB7F23
:105AB8000793FFF72BFF002E02D0012E6CD023E1B5
:105AC800924B69461A00EC3214601A00F4321560E1
